{
  "_format": "hh-sol-artifact-1",
  "contractName": "ICOExchange",
  "sourceName": "contracts/ICOExchange.sol",
  "abi": [
    {
      "inputs": [],
      "stateMutability": "nonpayable",
      "type": "constructor"
    },
    {
      "anonymous": false,
      "inputs": [
        {
          "indexed": true,
          "internalType": "address",
          "name": "previousOwner",
          "type": "address"
        },
        {
          "indexed": true,
          "internalType": "address",
          "name": "newOwner",
          "type": "address"
        }
      ],
      "name": "OwnershipTransferred",
      "type": "event"
    },
    {
      "inputs": [
        {
          "internalType": "uint256",
          "name": "amount",
          "type": "uint256"
        }
      ],
      "name": "buyIcoTokens",
      "outputs": [],
      "stateMutability": "payable",
      "type": "function"
    },
    {
      "inputs": [],
      "name": "claimEth",
      "outputs": [],
      "stateMutability": "nonpayable",
      "type": "function"
    },
    {
      "inputs": [
        {
          "internalType": "uint256",
          "name": "_tokenIds",
          "type": "uint256"
        }
      ],
      "name": "claimTokens",
      "outputs": [],
      "stateMutability": "nonpayable",
      "type": "function"
    },
    {
      "inputs": [
        {
          "internalType": "address",
          "name": "icoNftAddress",
          "type": "address"
        }
      ],
      "name": "initIcoNft",
      "outputs": [],
      "stateMutability": "nonpayable",
      "type": "function"
    },
    {
      "inputs": [
        {
          "internalType": "address",
          "name": "icoTokenAddress",
          "type": "address"
        }
      ],
      "name": "initIcoToken",
      "outputs": [],
      "stateMutability": "nonpayable",
      "type": "function"
    },
    {
      "inputs": [],
      "name": "owner",
      "outputs": [
        {
          "internalType": "address",
          "name": "",
          "type": "address"
        }
      ],
      "stateMutability": "view",
      "type": "function"
    },
    {
      "inputs": [],
      "name": "renounceOwnership",
      "outputs": [],
      "stateMutability": "nonpayable",
      "type": "function"
    },
    {
      "inputs": [
        {
          "internalType": "address",
          "name": "newOwner",
          "type": "address"
        }
      ],
      "name": "transferOwnership",
      "outputs": [],
      "stateMutability": "nonpayable",
      "type": "function"
    },
    {
      "stateMutability": "payable",
      "type": "receive"
    }
  ],
  "bytecode": "0x608060405234801561001057600080fd5b5061002d61002261003960201b60201c565b61004160201b60201c565b60018081905550610105565b600033905090565b60008060009054906101000a900473ffffffffffffffffffffffffffffffffffffffff169050816000806101000a81548173ffffffffffffffffffffffffffffffffffffffff021916908373ffffffffffffffffffffffffffffffffffffffff1602179055508173ffffffffffffffffffffffffffffffffffffffff168173ffffffffffffffffffffffffffffffffffffffff167f8be0079c531659141344cd1fd0a4f28419497f9722a3daafe3b4186f6b6457e060405160405180910390a35050565b61153a806101146000396000f3fe60806040526004361061007f5760003560e01c80638da5cb5b1161004e5780638da5cb5b14610110578063a9e9daf41461013b578063b7cdddcb14610164578063f2fde38b1461017b57610086565b806306222be31461008b57806346e04a2f146100a7578063644f0937146100d0578063715018a6146100f957610086565b3661008657005b600080fd5b6100a560048036038101906100a09190610fbd565b6101a4565b005b3480156100b357600080fd5b506100ce60048036038101906100c99190610fbd565b610687565b005b3480156100dc57600080fd5b506100f760048036038101906100f29190610f42565b610990565b005b34801561010557600080fd5b5061010e610bd5565b005b34801561011c57600080fd5b50610125610be9565b6040516101329190611122565b60405180910390f35b34801561014757600080fd5b50610162600480360381019061015d9190610f42565b610c12565b005b34801561017057600080fd5b50610179610c5e565b005b34801561018757600080fd5b506101a2600480360381019061019d9190610f42565b610d0b565b005b600260015414156101ea576040517f08c379a00000000000000000000000000000000000000000000000000000000081526004016101e19061123d565b60405180910390fd5b60026001819055506101fa610be9565b73ffffffffffffffffffffffffffffffffffffffff163373ffffffffffffffffffffffffffffffffffffffff16141580156103005750600260009054906101000a900473ffffffffffffffffffffffffffffffffffffffff1673ffffffffffffffffffffffffffffffffffffffff16638da5cb5b6040518163ffffffff1660e01b815260040160206040518083038186803b15801561029857600080fd5b505afa1580156102ac573d6000803e3d6000fd5b505050506040513d601f19601f820116820180604052508101906102d09190610f6b565b73ffffffffffffffffffffffffffffffffffffffff163373ffffffffffffffffffffffffffffffffffffffff1614155b61033f576040517f08c379a00000000000000000000000000000000000000000000000000000000081526004016103369061121d565b60405180910390fd5b600066038d7ea4c6800090506000600260009054906101000a900473ffffffffffffffffffffffffffffffffffffffff1673ffffffffffffffffffffffffffffffffffffffff166370a08231336040518263ffffffff1660e01b81526004016103a89190611122565b60206040518083038186803b1580156103c057600080fd5b505afa1580156103d4573d6000803e3d6000fd5b505050506040513d601f19601f820116820180604052508101906103f89190610fe6565b14610438576040517f08c379a000000000000000000000000000000000000000000000000000000000815260040161042f9061125d565b60405180910390fd5b818161044491906112a9565b3414610485576040517f08c379a000000000000000000000000000000000000000000000000000000000815260040161047c906111bd565b60405180910390fd5b6000670de0b6b3a76400008361049b91906112a9565b9050600260009054906101000a900473ffffffffffffffffffffffffffffffffffffffff1673ffffffffffffffffffffffffffffffffffffffff166323b872dd600260009054906101000a900473ffffffffffffffffffffffffffffffffffffffff1673ffffffffffffffffffffffffffffffffffffffff16638da5cb5b6040518163ffffffff1660e01b815260040160206040518083038186803b15801561054357600080fd5b505afa158015610557573d6000803e3d6000fd5b505050506040513d601f19601f8201168201806040525081019061057b9190610f6b565b33846040518463ffffffff1660e01b815260040161059b9392919061113d565b602060405180830381600087803b1580156105b557600080fd5b505af11580156105c9573d6000803e3d6000fd5b505050506040513d601f19601f820116820180604052508101906105ed9190610f94565b50600360009054906101000a900473ffffffffffffffffffffffffffffffffffffffff1673ffffffffffffffffffffffffffffffffffffffff1663e9c2e14b336040518263ffffffff1660e01b81526004016106499190611122565b600060405180830381600087803b15801561066357600080fd5b505af1158015610677573d6000803e3d6000fd5b5050505050506001808190555050565b3373ffffffffffffffffffffffffffffffffffffffff16600360009054906101000a900473ffffffffffffffffffffffffffffffffffffffff1673ffffffffffffffffffffffffffffffffffffffff16636352211e836040518263ffffffff1660e01b81526004016106f9919061127d565b60206040518083038186803b15801561071157600080fd5b505afa158015610725573d6000803e3d6000fd5b505050506040513d601f19601f820116820180604052508101906107499190610f6b565b73ffffffffffffffffffffffffffffffffffffffff161461079f576040517f08c379a0000000000000000000000000000000000000000000000000000000008152600401610796906111dd565b60405180910390fd5b600360009054906101000a900473ffffffffffffffffffffffffffffffffffffffff1673ffffffffffffffffffffffffffffffffffffffff1663d1df306c33836040518363ffffffff1660e01b81526004016107fc929190611174565b600060405180830381600087803b15801561081657600080fd5b505af115801561082a573d6000803e3d6000fd5b505050506000678ac7230489e800009050600260009054906101000a900473ffffffffffffffffffffffffffffffffffffffff1673ffffffffffffffffffffffffffffffffffffffff166323b872dd600260009054906101000a900473ffffffffffffffffffffffffffffffffffffffff1673ffffffffffffffffffffffffffffffffffffffff16638da5cb5b6040518163ffffffff1660e01b815260040160206040518083038186803b1580156108e157600080fd5b505afa1580156108f5573d6000803e3d6000fd5b505050506040513d601f19601f820116820180604052508101906109199190610f6b565b33846040518463ffffffff1660e01b81526004016109399392919061113d565b602060405180830381600087803b15801561095357600080fd5b505af1158015610967573d6000803e3d6000fd5b505050506040513d601f19601f8201168201806040525081019061098b9190610f94565b505050565b610998610d8f565b80600260006101000a81548173ffffffffffffffffffffffffffffffffffffffff021916908373ffffffffffffffffffffffffffffffffffffffff160217905550600260009054906101000a900473ffffffffffffffffffffffffffffffffffffffff1673ffffffffffffffffffffffffffffffffffffffff16633950935130600260009054906101000a900473ffffffffffffffffffffffffffffffffffffffff1673ffffffffffffffffffffffffffffffffffffffff166370a08231600260009054906101000a900473ffffffffffffffffffffffffffffffffffffffff1673ffffffffffffffffffffffffffffffffffffffff16638da5cb5b6040518163ffffffff1660e01b815260040160206040518083038186803b158015610abe57600080fd5b505afa158015610ad2573d6000803e3d6000fd5b505050506040513d601f19601f82011682018060405250810190610af69190610f6b565b6040518263ffffffff1660e01b8152600401610b129190611122565b60206040518083038186803b158015610b2a57600080fd5b505afa158015610b3e573d6000803e3d6000fd5b505050506040513d601f19601f82011682018060405250810190610b629190610fe6565b6040518363ffffffff1660e01b8152600401610b7f929190611174565b602060405180830381600087803b158015610b9957600080fd5b505af1158015610bad573d6000803e3d6000fd5b505050506040513d601f19601f82011682018060405250810190610bd19190610f94565b5050565b610bdd610d8f565b610be76000610e0d565b565b60008060009054906101000a900473ffffffffffffffffffffffffffffffffffffffff16905090565b610c1a610d8f565b80600360006101000a81548173ffffffffffffffffffffffffffffffffffffffff021916908373ffffffffffffffffffffffffffffffffffffffff16021790555050565b610c66610d8f565b60026001541415610cac576040517f08c379a0000000000000000000000000000000000000000000000000000000008152600401610ca39061123d565b60405180910390fd5b6002600181905550610cbc610be9565b73ffffffffffffffffffffffffffffffffffffffff166108fc479081150290604051600060405180830381858888f19350505050158015610d01573d6000803e3d6000fd5b5060018081905550565b610d13610d8f565b600073ffffffffffffffffffffffffffffffffffffffff168173ffffffffffffffffffffffffffffffffffffffff161415610d83576040517f08c379a0000000000000000000000000000000000000000000000000000000008152600401610d7a9061119d565b60405180910390fd5b610d8c81610e0d565b50565b610d97610ed1565b73ffffffffffffffffffffffffffffffffffffffff16610db5610be9565b73ffffffffffffffffffffffffffffffffffffffff1614610e0b576040517f08c379a0000000000000000000000000000000000000000000000000000000008152600401610e02906111fd565b60405180910390fd5b565b60008060009054906101000a900473ffffffffffffffffffffffffffffffffffffffff169050816000806101000a81548173ffffffffffffffffffffffffffffffffffffffff021916908373ffffffffffffffffffffffffffffffffffffffff1602179055508173ffffffffffffffffffffffffffffffffffffffff168173ffffffffffffffffffffffffffffffffffffffff167f8be0079c531659141344cd1fd0a4f28419497f9722a3daafe3b4186f6b6457e060405160405180910390a35050565b600033905090565b600081359050610ee8816114bf565b92915050565b600081519050610efd816114bf565b92915050565b600081519050610f12816114d6565b92915050565b600081359050610f27816114ed565b92915050565b600081519050610f3c816114ed565b92915050565b600060208284031215610f5457600080fd5b6000610f6284828501610ed9565b91505092915050565b600060208284031215610f7d57600080fd5b6000610f8b84828501610eee565b91505092915050565b600060208284031215610fa657600080fd5b6000610fb484828501610f03565b91505092915050565b600060208284031215610fcf57600080fd5b6000610fdd84828501610f18565b91505092915050565b600060208284031215610ff857600080fd5b600061100684828501610f2d565b91505092915050565b61101881611303565b82525050565b600061102b602683611298565b91506110368261137a565b604082019050919050565b600061104e601783611298565b9150611059826113c9565b602082019050919050565b6000611071600e83611298565b915061107c826113f2565b602082019050919050565b6000611094602083611298565b915061109f8261141b565b602082019050919050565b60006110b7601883611298565b91506110c282611444565b602082019050919050565b60006110da601f83611298565b91506110e58261146d565b602082019050919050565b60006110fd601b83611298565b915061110882611496565b602082019050919050565b61111c81611341565b82525050565b6000602082019050611137600083018461100f565b92915050565b6000606082019050611152600083018661100f565b61115f602083018561100f565b61116c6040830184611113565b949350505050565b6000604082019050611189600083018561100f565b6111966020830184611113565b9392505050565b600060208201905081810360008301526111b68161101e565b9050919050565b600060208201905081810360008301526111d681611041565b9050919050565b600060208201905081810360008301526111f681611064565b9050919050565b6000602082019050818103600083015261121681611087565b9050919050565b60006020820190508181036000830152611236816110aa565b9050919050565b60006020820190508181036000830152611256816110cd565b9050919050565b60006020820190508181036000830152611276816110f0565b9050919050565b60006020820190506112926000830184611113565b92915050565b600082825260208201905092915050565b60006112b482611341565b91506112bf83611341565b9250817fffffffffffffffffffffffffffffffffffffffffffffffffffffffffffffffff04831182151516156112f8576112f761134b565b5b828202905092915050565b600061130e82611321565b9050919050565b60008115159050919050565b600073ffffffffffffffffffffffffffffffffffffffff82169050919050565b6000819050919050565b7f4e487b7100000000000000000000000000000000000000000000000000000000600052601160045260246000fd5b7f4f776e61626c653a206e6577206f776e657220697320746865207a65726f206160008201527f6464726573730000000000000000000000000000000000000000000000000000602082015250565b7f53657420526967687420507269636520696e2057656921000000000000000000600082015250565b7f4e6f7420796f757220546f6b656e000000000000000000000000000000000000600082015250565b7f4f776e61626c653a2063616c6c6572206973206e6f7420746865206f776e6572600082015250565b7f41646d696e3a2043616e27742062757920746f6b656e73210000000000000000600082015250565b7f5265656e7472616e637947756172643a207265656e7472616e742063616c6c00600082015250565b7f416c726561647920626f7567687420796f757220746f6b656e73210000000000600082015250565b6114c881611303565b81146114d357600080fd5b50565b6114df81611315565b81146114ea57600080fd5b50565b6114f681611341565b811461150157600080fd5b5056fea264697066735822122071ddb1ee23c166ccd4ca8fe57721c44f6173810f65ee7070eea0b5c8dde548c864736f6c63430008040033",
  "linkReferences": {},
  "deployedLinkReferences": {}
}