{
  "_format": "hh-sol-artifact-1",
  "contractName": "ICOExchange",
  "sourceName": "contracts/ICOExchange.sol",
  "abi": [
    {
      "inputs": [],
      "stateMutability": "nonpayable",
      "type": "constructor"
    },
    {
      "anonymous": false,
      "inputs": [
        {
          "indexed": true,
          "internalType": "address",
          "name": "previousOwner",
          "type": "address"
        },
        {
          "indexed": true,
          "internalType": "address",
          "name": "newOwner",
          "type": "address"
        }
      ],
      "name": "OwnershipTransferred",
      "type": "event"
    },
    {
      "inputs": [
        {
          "internalType": "uint256",
          "name": "amount",
          "type": "uint256"
        }
      ],
      "name": "buyIcoTokens",
      "outputs": [],
      "stateMutability": "payable",
      "type": "function"
    },
    {
      "inputs": [],
      "name": "claimEth",
      "outputs": [],
      "stateMutability": "nonpayable",
      "type": "function"
    },
    {
      "inputs": [
        {
          "internalType": "uint256",
          "name": "_tokenIds",
          "type": "uint256"
        }
      ],
      "name": "claimTokens",
      "outputs": [],
      "stateMutability": "nonpayable",
      "type": "function"
    },
    {
      "inputs": [
        {
          "internalType": "address",
          "name": "icoNftAddress",
          "type": "address"
        }
      ],
      "name": "initIcoNft",
      "outputs": [],
      "stateMutability": "nonpayable",
      "type": "function"
    },
    {
      "inputs": [
        {
          "internalType": "address",
          "name": "icoTokenAddress",
          "type": "address"
        }
      ],
      "name": "initIcoToken",
      "outputs": [],
      "stateMutability": "nonpayable",
      "type": "function"
    },
    {
      "inputs": [],
      "name": "owner",
      "outputs": [
        {
          "internalType": "address",
          "name": "",
          "type": "address"
        }
      ],
      "stateMutability": "view",
      "type": "function"
    },
    {
      "inputs": [],
      "name": "renounceOwnership",
      "outputs": [],
      "stateMutability": "nonpayable",
      "type": "function"
    },
    {
      "inputs": [
        {
          "internalType": "address",
          "name": "newOwner",
          "type": "address"
        }
      ],
      "name": "transferOwnership",
      "outputs": [],
      "stateMutability": "nonpayable",
      "type": "function"
    },
    {
      "stateMutability": "payable",
      "type": "receive"
    }
  ],
  "bytecode": "0x608060405234801561001057600080fd5b5061002d61002261003960201b60201c565b61004160201b60201c565b60018081905550610105565b600033905090565b60008060009054906101000a900473ffffffffffffffffffffffffffffffffffffffff169050816000806101000a81548173ffffffffffffffffffffffffffffffffffffffff021916908373ffffffffffffffffffffffffffffffffffffffff1602179055508173ffffffffffffffffffffffffffffffffffffffff168173ffffffffffffffffffffffffffffffffffffffff167f8be0079c531659141344cd1fd0a4f28419497f9722a3daafe3b4186f6b6457e060405160405180910390a35050565b61160f806101146000396000f3fe60806040526004361061007f5760003560e01c80638da5cb5b1161004e5780638da5cb5b14610110578063a9e9daf41461013b578063b7cdddcb14610164578063f2fde38b1461017b57610086565b806306222be31461008b57806346e04a2f146100a7578063644f0937146100d0578063715018a6146100f957610086565b3661008657005b600080fd5b6100a560048036038101906100a09190611000565b6101a4565b005b3480156100b357600080fd5b506100ce60048036038101906100c99190611000565b6106ca565b005b3480156100dc57600080fd5b506100f760048036038101906100f29190610f85565b6109d3565b005b34801561010557600080fd5b5061010e610c18565b005b34801561011c57600080fd5b50610125610c2c565b6040516101329190611188565b60405180910390f35b34801561014757600080fd5b50610162600480360381019061015d9190610f85565b610c55565b005b34801561017057600080fd5b50610179610ca1565b005b34801561018757600080fd5b506101a2600480360381019061019d9190610f85565b610d4e565b005b600260015414156101ea576040517f08c379a00000000000000000000000000000000000000000000000000000000081526004016101e1906112c3565b60405180910390fd5b60026001819055506101fa610c2c565b73ffffffffffffffffffffffffffffffffffffffff163373ffffffffffffffffffffffffffffffffffffffff16141580156103005750600260009054906101000a900473ffffffffffffffffffffffffffffffffffffffff1673ffffffffffffffffffffffffffffffffffffffff16638da5cb5b6040518163ffffffff1660e01b815260040160206040518083038186803b15801561029857600080fd5b505afa1580156102ac573d6000803e3d6000fd5b505050506040513d601f19601f820116820180604052508101906102d09190610fae565b73ffffffffffffffffffffffffffffffffffffffff163373ffffffffffffffffffffffffffffffffffffffff1614155b61033f576040517f08c379a0000000000000000000000000000000000000000000000000000000008152600401610336906112a3565b60405180910390fd5b60008111610382576040517f08c379a000000000000000000000000000000000000000000000000000000000815260040161037990611263565b60405180910390fd5b600066038d7ea4c6800090506000600260009054906101000a900473ffffffffffffffffffffffffffffffffffffffff1673ffffffffffffffffffffffffffffffffffffffff166370a08231336040518263ffffffff1660e01b81526004016103eb9190611188565b60206040518083038186803b15801561040357600080fd5b505afa158015610417573d6000803e3d6000fd5b505050506040513d601f19601f8201168201806040525081019061043b9190611029565b1461047b576040517f08c379a0000000000000000000000000000000000000000000000000000000008152600401610472906112e3565b60405180910390fd5b8181610487919061132f565b34146104c8576040517f08c379a00000000000000000000000000000000000000000000000000000000081526004016104bf90611223565b60405180910390fd5b6000670de0b6b3a7640000836104de919061132f565b9050600260009054906101000a900473ffffffffffffffffffffffffffffffffffffffff1673ffffffffffffffffffffffffffffffffffffffff166323b872dd600260009054906101000a900473ffffffffffffffffffffffffffffffffffffffff1673ffffffffffffffffffffffffffffffffffffffff16638da5cb5b6040518163ffffffff1660e01b815260040160206040518083038186803b15801561058657600080fd5b505afa15801561059a573d6000803e3d6000fd5b505050506040513d601f19601f820116820180604052508101906105be9190610fae565b33846040518463ffffffff1660e01b81526004016105de939291906111a3565b602060405180830381600087803b1580156105f857600080fd5b505af115801561060c573d6000803e3d6000fd5b505050506040513d601f19601f820116820180604052508101906106309190610fd7565b50600360009054906101000a900473ffffffffffffffffffffffffffffffffffffffff1673ffffffffffffffffffffffffffffffffffffffff1663e9c2e14b336040518263ffffffff1660e01b815260040161068c9190611188565b600060405180830381600087803b1580156106a657600080fd5b505af11580156106ba573d6000803e3d6000fd5b5050505050506001808190555050565b3373ffffffffffffffffffffffffffffffffffffffff16600360009054906101000a900473ffffffffffffffffffffffffffffffffffffffff1673ffffffffffffffffffffffffffffffffffffffff16636352211e836040518263ffffffff1660e01b815260040161073c9190611303565b60206040518083038186803b15801561075457600080fd5b505afa158015610768573d6000803e3d6000fd5b505050506040513d601f19601f8201168201806040525081019061078c9190610fae565b73ffffffffffffffffffffffffffffffffffffffff16146107e2576040517f08c379a00000000000000000000000000000000000000000000000000000000081526004016107d990611243565b60405180910390fd5b600360009054906101000a900473ffffffffffffffffffffffffffffffffffffffff1673ffffffffffffffffffffffffffffffffffffffff1663d1df306c33836040518363ffffffff1660e01b815260040161083f9291906111da565b600060405180830381600087803b15801561085957600080fd5b505af115801561086d573d6000803e3d6000fd5b505050506000678ac7230489e800009050600260009054906101000a900473ffffffffffffffffffffffffffffffffffffffff1673ffffffffffffffffffffffffffffffffffffffff166323b872dd600260009054906101000a900473ffffffffffffffffffffffffffffffffffffffff1673ffffffffffffffffffffffffffffffffffffffff16638da5cb5b6040518163ffffffff1660e01b815260040160206040518083038186803b15801561092457600080fd5b505afa158015610938573d6000803e3d6000fd5b505050506040513d601f19601f8201168201806040525081019061095c9190610fae565b33846040518463ffffffff1660e01b815260040161097c939291906111a3565b602060405180830381600087803b15801561099657600080fd5b505af11580156109aa573d6000803e3d6000fd5b505050506040513d601f19601f820116820180604052508101906109ce9190610fd7565b505050565b6109db610dd2565b80600260006101000a81548173ffffffffffffffffffffffffffffffffffffffff021916908373ffffffffffffffffffffffffffffffffffffffff160217905550600260009054906101000a900473ffffffffffffffffffffffffffffffffffffffff1673ffffffffffffffffffffffffffffffffffffffff16633950935130600260009054906101000a900473ffffffffffffffffffffffffffffffffffffffff1673ffffffffffffffffffffffffffffffffffffffff166370a08231600260009054906101000a900473ffffffffffffffffffffffffffffffffffffffff1673ffffffffffffffffffffffffffffffffffffffff16638da5cb5b6040518163ffffffff1660e01b815260040160206040518083038186803b158015610b0157600080fd5b505afa158015610b15573d6000803e3d6000fd5b505050506040513d601f19601f82011682018060405250810190610b399190610fae565b6040518263ffffffff1660e01b8152600401610b559190611188565b60206040518083038186803b158015610b6d57600080fd5b505afa158015610b81573d6000803e3d6000fd5b505050506040513d601f19601f82011682018060405250810190610ba59190611029565b6040518363ffffffff1660e01b8152600401610bc29291906111da565b602060405180830381600087803b158015610bdc57600080fd5b505af1158015610bf0573d6000803e3d6000fd5b505050506040513d601f19601f82011682018060405250810190610c149190610fd7565b5050565b610c20610dd2565b610c2a6000610e50565b565b60008060009054906101000a900473ffffffffffffffffffffffffffffffffffffffff16905090565b610c5d610dd2565b80600360006101000a81548173ffffffffffffffffffffffffffffffffffffffff021916908373ffffffffffffffffffffffffffffffffffffffff16021790555050565b610ca9610dd2565b60026001541415610cef576040517f08c379a0000000000000000000000000000000000000000000000000000000008152600401610ce6906112c3565b60405180910390fd5b6002600181905550610cff610c2c565b73ffffffffffffffffffffffffffffffffffffffff166108fc479081150290604051600060405180830381858888f19350505050158015610d44573d6000803e3d6000fd5b5060018081905550565b610d56610dd2565b600073ffffffffffffffffffffffffffffffffffffffff168173ffffffffffffffffffffffffffffffffffffffff161415610dc6576040517f08c379a0000000000000000000000000000000000000000000000000000000008152600401610dbd90611203565b60405180910390fd5b610dcf81610e50565b50565b610dda610f14565b73ffffffffffffffffffffffffffffffffffffffff16610df8610c2c565b73ffffffffffffffffffffffffffffffffffffffff1614610e4e576040517f08c379a0000000000000000000000000000000000000000000000000000000008152600401610e4590611283565b60405180910390fd5b565b60008060009054906101000a900473ffffffffffffffffffffffffffffffffffffffff169050816000806101000a81548173ffffffffffffffffffffffffffffffffffffffff021916908373ffffffffffffffffffffffffffffffffffffffff1602179055508173ffffffffffffffffffffffffffffffffffffffff168173ffffffffffffffffffffffffffffffffffffffff167f8be0079c531659141344cd1fd0a4f28419497f9722a3daafe3b4186f6b6457e060405160405180910390a35050565b600033905090565b600081359050610f2b81611594565b92915050565b600081519050610f4081611594565b92915050565b600081519050610f55816115ab565b92915050565b600081359050610f6a816115c2565b92915050565b600081519050610f7f816115c2565b92915050565b600060208284031215610f9757600080fd5b6000610fa584828501610f1c565b91505092915050565b600060208284031215610fc057600080fd5b6000610fce84828501610f31565b91505092915050565b600060208284031215610fe957600080fd5b6000610ff784828501610f46565b91505092915050565b60006020828403121561101257600080fd5b600061102084828501610f5b565b91505092915050565b60006020828403121561103b57600080fd5b600061104984828501610f70565b91505092915050565b61105b81611389565b82525050565b600061106e60268361131e565b915061107982611400565b604082019050919050565b600061109160178361131e565b915061109c8261144f565b602082019050919050565b60006110b4600e8361131e565b91506110bf82611478565b602082019050919050565b60006110d760218361131e565b91506110e2826114a1565b604082019050919050565b60006110fa60208361131e565b9150611105826114f0565b602082019050919050565b600061111d60188361131e565b915061112882611519565b602082019050919050565b6000611140601f8361131e565b915061114b82611542565b602082019050919050565b6000611163601b8361131e565b915061116e8261156b565b602082019050919050565b611182816113c7565b82525050565b600060208201905061119d6000830184611052565b92915050565b60006060820190506111b86000830186611052565b6111c56020830185611052565b6111d26040830184611179565b949350505050565b60006040820190506111ef6000830185611052565b6111fc6020830184611179565b9392505050565b6000602082019050818103600083015261121c81611061565b9050919050565b6000602082019050818103600083015261123c81611084565b9050919050565b6000602082019050818103600083015261125c816110a7565b9050919050565b6000602082019050818103600083015261127c816110ca565b9050919050565b6000602082019050818103600083015261129c816110ed565b9050919050565b600060208201905081810360008301526112bc81611110565b9050919050565b600060208201905081810360008301526112dc81611133565b9050919050565b600060208201905081810360008301526112fc81611156565b9050919050565b60006020820190506113186000830184611179565b92915050565b600082825260208201905092915050565b600061133a826113c7565b9150611345836113c7565b9250817fffffffffffffffffffffffffffffffffffffffffffffffffffffffffffffffff048311821515161561137e5761137d6113d1565b5b828202905092915050565b6000611394826113a7565b9050919050565b60008115159050919050565b600073ffffffffffffffffffffffffffffffffffffffff82169050919050565b6000819050919050565b7f4e487b7100000000000000000000000000000000000000000000000000000000600052601160045260246000fd5b7f4f776e61626c653a206e6577206f776e657220697320746865207a65726f206160008201527f6464726573730000000000000000000000000000000000000000000000000000602082015250565b7f53657420526967687420507269636520696e2057656921000000000000000000600082015250565b7f4e6f7420796f757220546f6b656e000000000000000000000000000000000000600082015250565b7f43616e27742068617665207468697320616d6f756e74206f6620746f6b656e7360008201527f2100000000000000000000000000000000000000000000000000000000000000602082015250565b7f4f776e61626c653a2063616c6c6572206973206e6f7420746865206f776e6572600082015250565b7f41646d696e3a2043616e27742062757920746f6b656e73210000000000000000600082015250565b7f5265656e7472616e637947756172643a207265656e7472616e742063616c6c00600082015250565b7f416c726561647920626f7567687420796f757220746f6b656e73210000000000600082015250565b61159d81611389565b81146115a857600080fd5b50565b6115b48161139b565b81146115bf57600080fd5b50565b6115cb816113c7565b81146115d657600080fd5b5056fea2646970667358221220595783e96b4c6eac09727143660145e47e1e4f28cacfc1f0ac1ffb1a9c8c583364736f6c63430008040033",
  "linkReferences": {},
  "deployedLinkReferences": {}
}