{
  "_format": "hh-sol-artifact-1",
  "contractName": "ICOExchange",
  "sourceName": "contracts/ICOExchange.sol",
  "abi": [
    {
      "inputs": [],
      "stateMutability": "nonpayable",
      "type": "constructor"
    },
    {
      "anonymous": false,
      "inputs": [
        {
          "indexed": true,
          "internalType": "address",
          "name": "previousOwner",
          "type": "address"
        },
        {
          "indexed": true,
          "internalType": "address",
          "name": "newOwner",
          "type": "address"
        }
      ],
      "name": "OwnershipTransferred",
      "type": "event"
    },
    {
      "inputs": [
        {
          "internalType": "uint256",
          "name": "amount",
          "type": "uint256"
        }
      ],
      "name": "buyIcoTokens",
      "outputs": [],
      "stateMutability": "payable",
      "type": "function"
    },
    {
      "inputs": [],
      "name": "claimEth",
      "outputs": [],
      "stateMutability": "nonpayable",
      "type": "function"
    },
    {
      "inputs": [
        {
          "internalType": "uint256",
          "name": "_tokenIds",
          "type": "uint256"
        }
      ],
      "name": "claimTokens",
      "outputs": [],
      "stateMutability": "nonpayable",
      "type": "function"
    },
    {
      "inputs": [
        {
          "internalType": "address",
          "name": "icoNftAddress",
          "type": "address"
        }
      ],
      "name": "initIcoNft",
      "outputs": [],
      "stateMutability": "nonpayable",
      "type": "function"
    },
    {
      "inputs": [
        {
          "internalType": "address",
          "name": "icoTokenAddress",
          "type": "address"
        }
      ],
      "name": "initIcoToken",
      "outputs": [],
      "stateMutability": "nonpayable",
      "type": "function"
    },
    {
      "inputs": [],
      "name": "owner",
      "outputs": [
        {
          "internalType": "address",
          "name": "",
          "type": "address"
        }
      ],
      "stateMutability": "view",
      "type": "function"
    },
    {
      "inputs": [],
      "name": "renounceOwnership",
      "outputs": [],
      "stateMutability": "nonpayable",
      "type": "function"
    },
    {
      "inputs": [
        {
          "internalType": "address",
          "name": "",
          "type": "address"
        }
      ],
      "name": "retiredTokens",
      "outputs": [
        {
          "internalType": "bool",
          "name": "",
          "type": "bool"
        }
      ],
      "stateMutability": "view",
      "type": "function"
    },
    {
      "inputs": [
        {
          "internalType": "address",
          "name": "newOwner",
          "type": "address"
        }
      ],
      "name": "transferOwnership",
      "outputs": [],
      "stateMutability": "nonpayable",
      "type": "function"
    },
    {
      "stateMutability": "payable",
      "type": "receive"
    }
  ],
  "bytecode": "0x608060405234801561001057600080fd5b5061002d61002261003960201b60201c565b61004160201b60201c565b60018081905550610105565b600033905090565b60008060009054906101000a900473ffffffffffffffffffffffffffffffffffffffff169050816000806101000a81548173ffffffffffffffffffffffffffffffffffffffff021916908373ffffffffffffffffffffffffffffffffffffffff1602179055508173ffffffffffffffffffffffffffffffffffffffff168173ffffffffffffffffffffffffffffffffffffffff167f8be0079c531659141344cd1fd0a4f28419497f9722a3daafe3b4186f6b6457e060405160405180910390a35050565b611694806101146000396000f3fe60806040526004361061008a5760003560e01c80638da5cb5b116100595780638da5cb5b1461011b578063a9e9daf414610146578063b7cdddcb1461016f578063f12a0b1414610186578063f2fde38b146101c357610091565b806306222be31461009657806346e04a2f146100b2578063644f0937146100db578063715018a61461010457610091565b3661009157005b600080fd5b6100b060048036038101906100ab9190611081565b6101ec565b005b3480156100be57600080fd5b506100d960048036038101906100d49190611081565b6106cf565b005b3480156100e757600080fd5b5061010260048036038101906100fd9190611006565b610a34565b005b34801561011057600080fd5b50610119610c79565b005b34801561012757600080fd5b50610130610c8d565b60405161013d9190611218565b60405180910390f35b34801561015257600080fd5b5061016d60048036038101906101689190611006565b610cb6565b005b34801561017b57600080fd5b50610184610d02565b005b34801561019257600080fd5b506101ad60048036038101906101a89190611006565b610daf565b6040516101ba9190611293565b60405180910390f35b3480156101cf57600080fd5b506101ea60048036038101906101e59190611006565b610dcf565b005b60026001541415610232576040517f08c379a00000000000000000000000000000000000000000000000000000000081526004016102299061136e565b60405180910390fd5b6002600181905550610242610c8d565b73ffffffffffffffffffffffffffffffffffffffff163373ffffffffffffffffffffffffffffffffffffffff16141580156103485750600260009054906101000a900473ffffffffffffffffffffffffffffffffffffffff1673ffffffffffffffffffffffffffffffffffffffff16638da5cb5b6040518163ffffffff1660e01b815260040160206040518083038186803b1580156102e057600080fd5b505afa1580156102f4573d6000803e3d6000fd5b505050506040513d601f19601f82011682018060405250810190610318919061102f565b73ffffffffffffffffffffffffffffffffffffffff163373ffffffffffffffffffffffffffffffffffffffff1614155b610387576040517f08c379a000000000000000000000000000000000000000000000000000000000815260040161037e9061134e565b60405180910390fd5b600066038d7ea4c6800090506000600260009054906101000a900473ffffffffffffffffffffffffffffffffffffffff1673ffffffffffffffffffffffffffffffffffffffff166370a08231336040518263ffffffff1660e01b81526004016103f09190611218565b60206040518083038186803b15801561040857600080fd5b505afa15801561041c573d6000803e3d6000fd5b505050506040513d601f19601f8201168201806040525081019061044091906110aa565b14610480576040517f08c379a00000000000000000000000000000000000000000000000000000000081526004016104779061138e565b60405180910390fd5b818161048c91906113da565b34146104cd576040517f08c379a00000000000000000000000000000000000000000000000000000000081526004016104c4906112ce565b60405180910390fd5b6000670de0b6b3a7640000836104e391906113da565b9050600260009054906101000a900473ffffffffffffffffffffffffffffffffffffffff1673ffffffffffffffffffffffffffffffffffffffff166323b872dd600260009054906101000a900473ffffffffffffffffffffffffffffffffffffffff1673ffffffffffffffffffffffffffffffffffffffff16638da5cb5b6040518163ffffffff1660e01b815260040160206040518083038186803b15801561058b57600080fd5b505afa15801561059f573d6000803e3d6000fd5b505050506040513d601f19601f820116820180604052508101906105c3919061102f565b33846040518463ffffffff1660e01b81526004016105e393929190611233565b602060405180830381600087803b1580156105fd57600080fd5b505af1158015610611573d6000803e3d6000fd5b505050506040513d601f19601f820116820180604052508101906106359190611058565b50600360009054906101000a900473ffffffffffffffffffffffffffffffffffffffff1673ffffffffffffffffffffffffffffffffffffffff1663e9c2e14b336040518263ffffffff1660e01b81526004016106919190611218565b600060405180830381600087803b1580156106ab57600080fd5b505af11580156106bf573d6000803e3d6000fd5b5050505050506001808190555050565b60001515600460003373ffffffffffffffffffffffffffffffffffffffff1673ffffffffffffffffffffffffffffffffffffffff16815260200190815260200160002060009054906101000a900460ff16151514610762576040517f08c379a0000000000000000000000000000000000000000000000000000000008152600401610759906112ee565b60405180910390fd5b3373ffffffffffffffffffffffffffffffffffffffff16600360009054906101000a900473ffffffffffffffffffffffffffffffffffffffff1673ffffffffffffffffffffffffffffffffffffffff16636352211e836040518263ffffffff1660e01b81526004016107d491906113ae565b60206040518083038186803b1580156107ec57600080fd5b505afa158015610800573d6000803e3d6000fd5b505050506040513d601f19601f82011682018060405250810190610824919061102f565b73ffffffffffffffffffffffffffffffffffffffff161461087a576040517f08c379a00000000000000000000000000000000000000000000000000000000081526004016108719061130e565b60405180910390fd5b6001600460003373ffffffffffffffffffffffffffffffffffffffff1673ffffffffffffffffffffffffffffffffffffffff16815260200190815260200160002060006101000a81548160ff0219169083151502179055506000678ac7230489e800009050600260009054906101000a900473ffffffffffffffffffffffffffffffffffffffff1673ffffffffffffffffffffffffffffffffffffffff166323b872dd600260009054906101000a900473ffffffffffffffffffffffffffffffffffffffff1673ffffffffffffffffffffffffffffffffffffffff16638da5cb5b6040518163ffffffff1660e01b815260040160206040518083038186803b15801561098557600080fd5b505afa158015610999573d6000803e3d6000fd5b505050506040513d601f19601f820116820180604052508101906109bd919061102f565b33846040518463ffffffff1660e01b81526004016109dd93929190611233565b602060405180830381600087803b1580156109f757600080fd5b505af1158015610a0b573d6000803e3d6000fd5b505050506040513d601f19601f82011682018060405250810190610a2f9190611058565b505050565b610a3c610e53565b80600260006101000a81548173ffffffffffffffffffffffffffffffffffffffff021916908373ffffffffffffffffffffffffffffffffffffffff160217905550600260009054906101000a900473ffffffffffffffffffffffffffffffffffffffff1673ffffffffffffffffffffffffffffffffffffffff16633950935130600260009054906101000a900473ffffffffffffffffffffffffffffffffffffffff1673ffffffffffffffffffffffffffffffffffffffff166370a08231600260009054906101000a900473ffffffffffffffffffffffffffffffffffffffff1673ffffffffffffffffffffffffffffffffffffffff16638da5cb5b6040518163ffffffff1660e01b815260040160206040518083038186803b158015610b6257600080fd5b505afa158015610b76573d6000803e3d6000fd5b505050506040513d601f19601f82011682018060405250810190610b9a919061102f565b6040518263ffffffff1660e01b8152600401610bb69190611218565b60206040518083038186803b158015610bce57600080fd5b505afa158015610be2573d6000803e3d6000fd5b505050506040513d601f19601f82011682018060405250810190610c0691906110aa565b6040518363ffffffff1660e01b8152600401610c2392919061126a565b602060405180830381600087803b158015610c3d57600080fd5b505af1158015610c51573d6000803e3d6000fd5b505050506040513d601f19601f82011682018060405250810190610c759190611058565b5050565b610c81610e53565b610c8b6000610ed1565b565b60008060009054906101000a900473ffffffffffffffffffffffffffffffffffffffff16905090565b610cbe610e53565b80600360006101000a81548173ffffffffffffffffffffffffffffffffffffffff021916908373ffffffffffffffffffffffffffffffffffffffff16021790555050565b610d0a610e53565b60026001541415610d50576040517f08c379a0000000000000000000000000000000000000000000000000000000008152600401610d479061136e565b60405180910390fd5b6002600181905550610d60610c8d565b73ffffffffffffffffffffffffffffffffffffffff166108fc479081150290604051600060405180830381858888f19350505050158015610da5573d6000803e3d6000fd5b5060018081905550565b60046020528060005260406000206000915054906101000a900460ff1681565b610dd7610e53565b600073ffffffffffffffffffffffffffffffffffffffff168173ffffffffffffffffffffffffffffffffffffffff161415610e47576040517f08c379a0000000000000000000000000000000000000000000000000000000008152600401610e3e906112ae565b60405180910390fd5b610e5081610ed1565b50565b610e5b610f95565b73ffffffffffffffffffffffffffffffffffffffff16610e79610c8d565b73ffffffffffffffffffffffffffffffffffffffff1614610ecf576040517f08c379a0000000000000000000000000000000000000000000000000000000008152600401610ec69061132e565b60405180910390fd5b565b60008060009054906101000a900473ffffffffffffffffffffffffffffffffffffffff169050816000806101000a81548173ffffffffffffffffffffffffffffffffffffffff021916908373ffffffffffffffffffffffffffffffffffffffff1602179055508173ffffffffffffffffffffffffffffffffffffffff168173ffffffffffffffffffffffffffffffffffffffff167f8be0079c531659141344cd1fd0a4f28419497f9722a3daafe3b4186f6b6457e060405160405180910390a35050565b600033905090565b600081359050610fac81611619565b92915050565b600081519050610fc181611619565b92915050565b600081519050610fd681611630565b92915050565b600081359050610feb81611647565b92915050565b60008151905061100081611647565b92915050565b60006020828403121561101857600080fd5b600061102684828501610f9d565b91505092915050565b60006020828403121561104157600080fd5b600061104f84828501610fb2565b91505092915050565b60006020828403121561106a57600080fd5b600061107884828501610fc7565b91505092915050565b60006020828403121561109357600080fd5b60006110a184828501610fdc565b91505092915050565b6000602082840312156110bc57600080fd5b60006110ca84828501610ff1565b91505092915050565b6110dc81611434565b82525050565b6110eb81611446565b82525050565b60006110fe6026836113c9565b9150611109826114ab565b604082019050919050565b60006111216017836113c9565b915061112c826114fa565b602082019050919050565b60006111446016836113c9565b915061114f82611523565b602082019050919050565b6000611167600e836113c9565b91506111728261154c565b602082019050919050565b600061118a6020836113c9565b915061119582611575565b602082019050919050565b60006111ad6018836113c9565b91506111b88261159e565b602082019050919050565b60006111d0601f836113c9565b91506111db826115c7565b602082019050919050565b60006111f3601b836113c9565b91506111fe826115f0565b602082019050919050565b61121281611472565b82525050565b600060208201905061122d60008301846110d3565b92915050565b600060608201905061124860008301866110d3565b61125560208301856110d3565b6112626040830184611209565b949350505050565b600060408201905061127f60008301856110d3565b61128c6020830184611209565b9392505050565b60006020820190506112a860008301846110e2565b92915050565b600060208201905081810360008301526112c7816110f1565b9050919050565b600060208201905081810360008301526112e781611114565b9050919050565b6000602082019050818103600083015261130781611137565b9050919050565b600060208201905081810360008301526113278161115a565b9050919050565b600060208201905081810360008301526113478161117d565b9050919050565b60006020820190508181036000830152611367816111a0565b9050919050565b60006020820190508181036000830152611387816111c3565b9050919050565b600060208201905081810360008301526113a7816111e6565b9050919050565b60006020820190506113c36000830184611209565b92915050565b600082825260208201905092915050565b60006113e582611472565b91506113f083611472565b9250817fffffffffffffffffffffffffffffffffffffffffffffffffffffffffffffffff04831182151516156114295761142861147c565b5b828202905092915050565b600061143f82611452565b9050919050565b60008115159050919050565b600073ffffffffffffffffffffffffffffffffffffffff82169050919050565b6000819050919050565b7f4e487b7100000000000000000000000000000000000000000000000000000000600052601160045260246000fd5b7f4f776e61626c653a206e6577206f776e657220697320746865207a65726f206160008201527f6464726573730000000000000000000000000000000000000000000000000000602082015250565b7f53657420526967687420507269636520696e2057656921000000000000000000600082015250565b7f546f6b656e7320616c7265616479207265746972656400000000000000000000600082015250565b7f4e6f7420796f757220546f6b656e000000000000000000000000000000000000600082015250565b7f4f776e61626c653a2063616c6c6572206973206e6f7420746865206f776e6572600082015250565b7f41646d696e3a2043616e27742062757920746f6b656e73210000000000000000600082015250565b7f5265656e7472616e637947756172643a207265656e7472616e742063616c6c00600082015250565b7f416c726561647920626f7567687420796f757220746f6b656e73210000000000600082015250565b61162281611434565b811461162d57600080fd5b50565b61163981611446565b811461164457600080fd5b50565b61165081611472565b811461165b57600080fd5b5056fea2646970667358221220fbf4305377e618a160ee361629775977804b358a3639e3aa11b9561ce441abcc64736f6c63430008040033",
  "linkReferences": {},
  "deployedLinkReferences": {}
}