{
  "_format": "hh-sol-artifact-1",
  "contractName": "ICONft",
  "sourceName": "contracts/ICONft.sol",
  "abi": [
    {
      "inputs": [
        {
          "internalType": "uint256",
          "name": "supplyAmount",
          "type": "uint256"
        }
      ],
      "stateMutability": "nonpayable",
      "type": "constructor"
    },
    {
      "anonymous": false,
      "inputs": [
        {
          "indexed": true,
          "internalType": "address",
          "name": "owner",
          "type": "address"
        },
        {
          "indexed": true,
          "internalType": "address",
          "name": "approved",
          "type": "address"
        },
        {
          "indexed": true,
          "internalType": "uint256",
          "name": "tokenId",
          "type": "uint256"
        }
      ],
      "name": "Approval",
      "type": "event"
    },
    {
      "anonymous": false,
      "inputs": [
        {
          "indexed": true,
          "internalType": "address",
          "name": "owner",
          "type": "address"
        },
        {
          "indexed": true,
          "internalType": "address",
          "name": "operator",
          "type": "address"
        },
        {
          "indexed": false,
          "internalType": "bool",
          "name": "approved",
          "type": "bool"
        }
      ],
      "name": "ApprovalForAll",
      "type": "event"
    },
    {
      "anonymous": false,
      "inputs": [
        {
          "indexed": true,
          "internalType": "address",
          "name": "previousOwner",
          "type": "address"
        },
        {
          "indexed": true,
          "internalType": "address",
          "name": "newOwner",
          "type": "address"
        }
      ],
      "name": "OwnershipTransferred",
      "type": "event"
    },
    {
      "anonymous": false,
      "inputs": [
        {
          "indexed": true,
          "internalType": "address",
          "name": "from",
          "type": "address"
        },
        {
          "indexed": true,
          "internalType": "address",
          "name": "to",
          "type": "address"
        },
        {
          "indexed": true,
          "internalType": "uint256",
          "name": "tokenId",
          "type": "uint256"
        }
      ],
      "name": "Transfer",
      "type": "event"
    },
    {
      "inputs": [
        {
          "internalType": "string",
          "name": "_provenanceHash",
          "type": "string"
        }
      ],
      "name": "ProvenanceHash",
      "outputs": [],
      "stateMutability": "nonpayable",
      "type": "function"
    },
    {
      "inputs": [
        {
          "internalType": "address",
          "name": "to",
          "type": "address"
        },
        {
          "internalType": "uint256",
          "name": "tokenId",
          "type": "uint256"
        }
      ],
      "name": "approve",
      "outputs": [],
      "stateMutability": "nonpayable",
      "type": "function"
    },
    {
      "inputs": [
        {
          "internalType": "address",
          "name": "owner",
          "type": "address"
        }
      ],
      "name": "balanceOf",
      "outputs": [
        {
          "internalType": "uint256",
          "name": "",
          "type": "uint256"
        }
      ],
      "stateMutability": "view",
      "type": "function"
    },
    {
      "inputs": [
        {
          "internalType": "address",
          "name": "owner",
          "type": "address"
        },
        {
          "internalType": "uint256",
          "name": "tokenId",
          "type": "uint256"
        }
      ],
      "name": "burnToken",
      "outputs": [],
      "stateMutability": "nonpayable",
      "type": "function"
    },
    {
      "inputs": [
        {
          "internalType": "uint256",
          "name": "tokenId",
          "type": "uint256"
        }
      ],
      "name": "getApproved",
      "outputs": [
        {
          "internalType": "address",
          "name": "",
          "type": "address"
        }
      ],
      "stateMutability": "view",
      "type": "function"
    },
    {
      "inputs": [
        {
          "internalType": "address payable",
          "name": "icoExchangeAddress",
          "type": "address"
        }
      ],
      "name": "initIcoExchange",
      "outputs": [],
      "stateMutability": "nonpayable",
      "type": "function"
    },
    {
      "inputs": [
        {
          "internalType": "address",
          "name": "icoTokenAddress",
          "type": "address"
        }
      ],
      "name": "initIcoToken",
      "outputs": [],
      "stateMutability": "nonpayable",
      "type": "function"
    },
    {
      "inputs": [
        {
          "internalType": "address",
          "name": "owner",
          "type": "address"
        },
        {
          "internalType": "address",
          "name": "operator",
          "type": "address"
        }
      ],
      "name": "isApprovedForAll",
      "outputs": [
        {
          "internalType": "bool",
          "name": "",
          "type": "bool"
        }
      ],
      "stateMutability": "view",
      "type": "function"
    },
    {
      "inputs": [
        {
          "internalType": "address",
          "name": "tokenOwner",
          "type": "address"
        }
      ],
      "name": "mintNft",
      "outputs": [],
      "stateMutability": "nonpayable",
      "type": "function"
    },
    {
      "inputs": [],
      "name": "name",
      "outputs": [
        {
          "internalType": "string",
          "name": "",
          "type": "string"
        }
      ],
      "stateMutability": "view",
      "type": "function"
    },
    {
      "inputs": [],
      "name": "nftSupply",
      "outputs": [
        {
          "internalType": "uint256",
          "name": "",
          "type": "uint256"
        }
      ],
      "stateMutability": "view",
      "type": "function"
    },
    {
      "inputs": [],
      "name": "owner",
      "outputs": [
        {
          "internalType": "address",
          "name": "",
          "type": "address"
        }
      ],
      "stateMutability": "view",
      "type": "function"
    },
    {
      "inputs": [
        {
          "internalType": "uint256",
          "name": "tokenId",
          "type": "uint256"
        }
      ],
      "name": "ownerOf",
      "outputs": [
        {
          "internalType": "address",
          "name": "",
          "type": "address"
        }
      ],
      "stateMutability": "view",
      "type": "function"
    },
    {
      "inputs": [],
      "name": "provenanceHash",
      "outputs": [
        {
          "internalType": "string",
          "name": "",
          "type": "string"
        }
      ],
      "stateMutability": "view",
      "type": "function"
    },
    {
      "inputs": [],
      "name": "renounceOwnership",
      "outputs": [],
      "stateMutability": "nonpayable",
      "type": "function"
    },
    {
      "inputs": [
        {
          "internalType": "address",
          "name": "from",
          "type": "address"
        },
        {
          "internalType": "address",
          "name": "to",
          "type": "address"
        },
        {
          "internalType": "uint256",
          "name": "tokenId",
          "type": "uint256"
        }
      ],
      "name": "safeTransferFrom",
      "outputs": [],
      "stateMutability": "nonpayable",
      "type": "function"
    },
    {
      "inputs": [
        {
          "internalType": "address",
          "name": "from",
          "type": "address"
        },
        {
          "internalType": "address",
          "name": "to",
          "type": "address"
        },
        {
          "internalType": "uint256",
          "name": "tokenId",
          "type": "uint256"
        },
        {
          "internalType": "bytes",
          "name": "data",
          "type": "bytes"
        }
      ],
      "name": "safeTransferFrom",
      "outputs": [],
      "stateMutability": "nonpayable",
      "type": "function"
    },
    {
      "inputs": [
        {
          "internalType": "address",
          "name": "operator",
          "type": "address"
        },
        {
          "internalType": "bool",
          "name": "approved",
          "type": "bool"
        }
      ],
      "name": "setApprovalForAll",
      "outputs": [],
      "stateMutability": "nonpayable",
      "type": "function"
    },
    {
      "inputs": [
        {
          "internalType": "bytes4",
          "name": "interfaceId",
          "type": "bytes4"
        }
      ],
      "name": "supportsInterface",
      "outputs": [
        {
          "internalType": "bool",
          "name": "",
          "type": "bool"
        }
      ],
      "stateMutability": "view",
      "type": "function"
    },
    {
      "inputs": [],
      "name": "symbol",
      "outputs": [
        {
          "internalType": "string",
          "name": "",
          "type": "string"
        }
      ],
      "stateMutability": "view",
      "type": "function"
    },
    {
      "inputs": [
        {
          "internalType": "uint256",
          "name": "_tokenId",
          "type": "uint256"
        }
      ],
      "name": "tokenURI",
      "outputs": [
        {
          "internalType": "string",
          "name": "",
          "type": "string"
        }
      ],
      "stateMutability": "view",
      "type": "function"
    },
    {
      "inputs": [
        {
          "internalType": "address",
          "name": "from",
          "type": "address"
        },
        {
          "internalType": "address",
          "name": "to",
          "type": "address"
        },
        {
          "internalType": "uint256",
          "name": "tokenId",
          "type": "uint256"
        }
      ],
      "name": "transferFrom",
      "outputs": [],
      "stateMutability": "nonpayable",
      "type": "function"
    },
    {
      "inputs": [
        {
          "internalType": "address",
          "name": "newOwner",
          "type": "address"
        }
      ],
      "name": "transferOwnership",
      "outputs": [],
      "stateMutability": "nonpayable",
      "type": "function"
    }
  ],
  "bytecode": "0x60806040523480156200001157600080fd5b50604051620033ed380380620033ed83398181016040528101906200003791906200029a565b6040518060400160405280600781526020017f49434f204e4654000000000000000000000000000000000000000000000000008152506040518060400160405280600481526020017f49434f4e000000000000000000000000000000000000000000000000000000008152508160009080519060200190620000bb929190620001d3565b508060019080519060200190620000d4929190620001d3565b505050620000f7620000eb6200010560201b60201c565b6200010d60201b60201c565b80600b81905550506200034f565b600033905090565b6000600760009054906101000a900473ffffffffffffffffffffffffffffffffffffffff16905081600760006101000a81548173ffffffffffffffffffffffffffffffffffffffff021916908373ffffffffffffffffffffffffffffffffffffffff1602179055508173ffffffffffffffffffffffffffffffffffffffff168173ffffffffffffffffffffffffffffffffffffffff167f8be0079c531659141344cd1fd0a4f28419497f9722a3daafe3b4186f6b6457e060405160405180910390a35050565b828054620001e190620002d0565b90600052602060002090601f01602090048101928262000205576000855562000251565b82601f106200022057805160ff191683800117855562000251565b8280016001018555821562000251579182015b828111156200025057825182559160200191906001019062000233565b5b50905062000260919062000264565b5090565b5b808211156200027f57600081600090555060010162000265565b5090565b600081519050620002948162000335565b92915050565b600060208284031215620002ad57600080fd5b6000620002bd8482850162000283565b91505092915050565b6000819050919050565b60006002820490506001821680620002e957607f821691505b602082108114156200030057620002ff62000306565b5b50919050565b7f4e487b7100000000000000000000000000000000000000000000000000000000600052602260045260246000fd5b6200034081620002c6565b81146200034c57600080fd5b50565b61308e806200035f6000396000f3fe608060405234801561001057600080fd5b506004361061014d5760003560e01c80638da5cb5b116100c3578063c87b56dd1161007c578063c87b56dd14610376578063d1df306c146103a6578063d5726dfc146103c2578063e985e9c5146103de578063e9c2e14b1461040e578063f2fde38b1461042a5761014d565b80638da5cb5b146102c857806395d89b41146102e65780639a0d239714610304578063a22cb46514610320578063b88d4fde1461033c578063c6ab67a3146103585761014d565b806323b872dd1161011557806323b872dd1461020a57806342842e0e146102265780636352211e14610242578063644f09371461027257806370a082311461028e578063715018a6146102be5761014d565b806301790e011461015257806301ffc9a71461017057806306fdde03146101a0578063081812fc146101be578063095ea7b3146101ee575b600080fd5b61015a610446565b604051610167919061283c565b60405180910390f35b61018a60048036038101906101859190612210565b61044c565b604051610197919061263f565b60405180910390f35b6101a861052e565b6040516101b5919061265a565b60405180910390f35b6101d860048036038101906101d391906122a3565b6105c0565b6040516101e591906125d8565b60405180910390f35b610208600480360381019061020391906121d4565b610606565b005b610224600480360381019061021f91906120ce565b61071e565b005b610240600480360381019061023b91906120ce565b61077e565b005b61025c600480360381019061025791906122a3565b61079e565b60405161026991906125d8565b60405180910390f35b61028c60048036038101906102879190612040565b610850565b005b6102a860048036038101906102a39190612040565b61089c565b6040516102b5919061283c565b60405180910390f35b6102c6610954565b005b6102d0610968565b6040516102dd91906125d8565b60405180910390f35b6102ee610992565b6040516102fb919061265a565b60405180910390f35b61031e60048036038101906103199190612262565b610a24565b005b61033a60048036038101906103359190612198565b610a46565b005b6103566004803603810190610351919061211d565b610a5c565b005b610360610abe565b60405161036d919061265a565b60405180910390f35b610390600480360381019061038b91906122a3565b610b4c565b60405161039d919061265a565b60405180910390f35b6103c060048036038101906103bb91906121d4565b610b92565b005b6103dc60048036038101906103d79190612069565b610bf9565b005b6103f860048036038101906103f39190612092565b610c45565b604051610405919061263f565b60405180910390f35b61042860048036038101906104239190612040565b610cb1565b005b610444600480360381019061043f9190612040565b610d22565b005b600b5481565b60007f80ac58cd000000000000000000000000000000000000000000000000000000007bffffffffffffffffffffffffffffffffffffffffffffffffffffffff1916827bffffffffffffffffffffffffffffffffffffffffffffffffffffffff1916148061051757507f5b5e139f000000000000000000000000000000000000000000000000000000007bffffffffffffffffffffffffffffffffffffffffffffffffffffffff1916827bffffffffffffffffffffffffffffffffffffffffffffffffffffffff1916145b80610527575061052682610da6565b5b9050919050565b60606000805461053d90612aa4565b80601f016020809104026020016040519081016040528092919081815260200182805461056990612aa4565b80156105b65780601f1061058b576101008083540402835291602001916105b6565b820191906000526020600020905b81548152906001019060200180831161059957829003601f168201915b5050505050905090565b60006105cb82610e10565b6004600083815260200190815260200160002060009054906101000a900473ffffffffffffffffffffffffffffffffffffffff169050919050565b60006106118261079e565b90508073ffffffffffffffffffffffffffffffffffffffff168373ffffffffffffffffffffffffffffffffffffffff161415610682576040517f08c379a0000000000000000000000000000000000000000000000000000000008152600401610679906127fc565b60405180910390fd5b8073ffffffffffffffffffffffffffffffffffffffff166106a1610e5b565b73ffffffffffffffffffffffffffffffffffffffff1614806106d057506106cf816106ca610e5b565b610c45565b5b61070f576040517f08c379a00000000000000000000000000000000000000000000000000000000081526004016107069061277c565b60405180910390fd5b6107198383610e63565b505050565b61072f610729610e5b565b82610f1c565b61076e576040517f08c379a00000000000000000000000000000000000000000000000000000000081526004016107659061281c565b60405180910390fd5b610779838383610fb1565b505050565b61079983838360405180602001604052806000815250610a5c565b505050565b6000806002600084815260200190815260200160002060009054906101000a900473ffffffffffffffffffffffffffffffffffffffff169050600073ffffffffffffffffffffffffffffffffffffffff168173ffffffffffffffffffffffffffffffffffffffff161415610847576040517f08c379a000000000000000000000000000000000000000000000000000000000815260040161083e906127dc565b60405180910390fd5b80915050919050565b610858611218565b80600960006101000a81548173ffffffffffffffffffffffffffffffffffffffff021916908373ffffffffffffffffffffffffffffffffffffffff16021790555050565b60008073ffffffffffffffffffffffffffffffffffffffff168273ffffffffffffffffffffffffffffffffffffffff16141561090d576040517f08c379a00000000000000000000000000000000000000000000000000000000081526004016109049061275c565b60405180910390fd5b600360008373ffffffffffffffffffffffffffffffffffffffff1673ffffffffffffffffffffffffffffffffffffffff168152602001908152602001600020549050919050565b61095c611218565b6109666000611296565b565b6000600760009054906101000a900473ffffffffffffffffffffffffffffffffffffffff16905090565b6060600180546109a190612aa4565b80601f01602080910402602001604051908101604052809291908181526020018280546109cd90612aa4565b8015610a1a5780601f106109ef57610100808354040283529160200191610a1a565b820191906000526020600020905b8154815290600101906020018083116109fd57829003601f168201915b5050505050905090565b610a2c611218565b80600c9080519060200190610a42929190611e0f565b5050565b610a58610a51610e5b565b838361135c565b5050565b610a6d610a67610e5b565b83610f1c565b610aac576040517f08c379a0000000000000000000000000000000000000000000000000000000008152600401610aa39061281c565b60405180910390fd5b610ab8848484846114c9565b50505050565b600c8054610acb90612aa4565b80601f0160208091040260200160405190810160405280929190818152602001828054610af790612aa4565b8015610b445780601f10610b1957610100808354040283529160200191610b44565b820191906000526020600020905b815481529060010190602001808311610b2757829003601f168201915b505050505081565b60606000610b5983611525565b90506000610b656116d2565b82604051602001610b779291906125a9565b60405160208183030381529060405290508092505050919050565b610b9b8161079e565b73ffffffffffffffffffffffffffffffffffffffff168273ffffffffffffffffffffffffffffffffffffffff1614610bd257600080fd5b6001600b6000828254610be591906129a8565b92505081905550610bf581611764565b5050565b610c01611218565b80600a60006101000a81548173ffffffffffffffffffffffffffffffffffffffff021916908373ffffffffffffffffffffffffffffffffffffffff16021790555050565b6000610c5183836117b7565b80610ca95750600a60009054906101000a900473ffffffffffffffffffffffffffffffffffffffff1673ffffffffffffffffffffffffffffffffffffffff168273ffffffffffffffffffffffffffffffffffffffff16145b905092915050565b6000610cbc3361089c565b14610cfc576040517f08c379a0000000000000000000000000000000000000000000000000000000008152600401610cf3906126fc565b60405180910390fd5b6000610d08600861184b565b9050610d148282611859565b610d1e6008611877565b5050565b610d2a611218565b600073ffffffffffffffffffffffffffffffffffffffff168173ffffffffffffffffffffffffffffffffffffffff161415610d9a576040517f08c379a0000000000000000000000000000000000000000000000000000000008152600401610d919061269c565b60405180910390fd5b610da381611296565b50565b60007f01ffc9a7000000000000000000000000000000000000000000000000000000007bffffffffffffffffffffffffffffffffffffffffffffffffffffffff1916827bffffffffffffffffffffffffffffffffffffffffffffffffffffffff1916149050919050565b610e198161188d565b610e58576040517f08c379a0000000000000000000000000000000000000000000000000000000008152600401610e4f906127dc565b60405180910390fd5b50565b600033905090565b816004600083815260200190815260200160002060006101000a81548173ffffffffffffffffffffffffffffffffffffffff021916908373ffffffffffffffffffffffffffffffffffffffff160217905550808273ffffffffffffffffffffffffffffffffffffffff16610ed68361079e565b73ffffffffffffffffffffffffffffffffffffffff167f8c5be1e5ebec7d5bd14f71427d1e84f3dd0314c0f7b2291e5b200ac8c7c3b92560405160405180910390a45050565b600080610f288361079e565b90508073ffffffffffffffffffffffffffffffffffffffff168473ffffffffffffffffffffffffffffffffffffffff161480610f6a5750610f698185610c45565b5b80610fa857508373ffffffffffffffffffffffffffffffffffffffff16610f90846105c0565b73ffffffffffffffffffffffffffffffffffffffff16145b91505092915050565b8273ffffffffffffffffffffffffffffffffffffffff16610fd18261079e565b73ffffffffffffffffffffffffffffffffffffffff1614611027576040517f08c379a000000000000000000000000000000000000000000000000000000000815260040161101e906126bc565b60405180910390fd5b600073ffffffffffffffffffffffffffffffffffffffff168273ffffffffffffffffffffffffffffffffffffffff161415611097576040517f08c379a000000000000000000000000000000000000000000000000000000000815260040161108e9061271c565b60405180910390fd5b6110a28383836118f9565b6110ad600082610e63565b6001600360008573ffffffffffffffffffffffffffffffffffffffff1673ffffffffffffffffffffffffffffffffffffffff16815260200190815260200160002060008282546110fd91906129a8565b925050819055506001600360008473ffffffffffffffffffffffffffffffffffffffff1673ffffffffffffffffffffffffffffffffffffffff16815260200190815260200160002060008282546111549190612921565b92505081905550816002600083815260200190815260200160002060006101000a81548173ffffffffffffffffffffffffffffffffffffffff021916908373ffffffffffffffffffffffffffffffffffffffff160217905550808273ffffffffffffffffffffffffffffffffffffffff168473ffffffffffffffffffffffffffffffffffffffff167fddf252ad1be2c89b69c2b068fc378daa952ba7f163c4a11628f55a4df523b3ef60405160405180910390a46112138383836118fe565b505050565b611220610e5b565b73ffffffffffffffffffffffffffffffffffffffff1661123e610968565b73ffffffffffffffffffffffffffffffffffffffff1614611294576040517f08c379a000000000000000000000000000000000000000000000000000000000815260040161128b906127bc565b60405180910390fd5b565b6000600760009054906101000a900473ffffffffffffffffffffffffffffffffffffffff16905081600760006101000a81548173ffffffffffffffffffffffffffffffffffffffff021916908373ffffffffffffffffffffffffffffffffffffffff1602179055508173ffffffffffffffffffffffffffffffffffffffff168173ffffffffffffffffffffffffffffffffffffffff167f8be0079c531659141344cd1fd0a4f28419497f9722a3daafe3b4186f6b6457e060405160405180910390a35050565b8173ffffffffffffffffffffffffffffffffffffffff168373ffffffffffffffffffffffffffffffffffffffff1614156113cb576040517f08c379a00000000000000000000000000000000000000000000000000000000081526004016113c29061273c565b60405180910390fd5b80600560008573ffffffffffffffffffffffffffffffffffffffff1673ffffffffffffffffffffffffffffffffffffffff16815260200190815260200160002060008473ffffffffffffffffffffffffffffffffffffffff1673ffffffffffffffffffffffffffffffffffffffff16815260200190815260200160002060006101000a81548160ff0219169083151502179055508173ffffffffffffffffffffffffffffffffffffffff168373ffffffffffffffffffffffffffffffffffffffff167f17307eab39ab6107e8899845ad3d59bd9653f200f220920489ca2b5937696c31836040516114bc919061263f565b60405180910390a3505050565b6114d4848484610fb1565b6114e084848484611903565b61151f576040517f08c379a00000000000000000000000000000000000000000000000000000000081526004016115169061267c565b60405180910390fd5b50505050565b6060600082141561156d576040518060400160405280600181526020017f300000000000000000000000000000000000000000000000000000000000000081525090506116cd565b600082905060005b6000821461159f57808061158890612b07565b915050600a826115989190612977565b9150611575565b60008167ffffffffffffffff8111156115e1577f4e487b7100000000000000000000000000000000000000000000000000000000600052604160045260246000fd5b6040519080825280601f01601f1916602001820160405280156116135781602001600182028036833780820191505090505b5090505b600085146116c65760018261162c91906129a8565b9150600a8561163b9190612b50565b60306116479190612921565b60f81b818381518110611683577f4e487b7100000000000000000000000000000000000000000000000000000000600052603260045260246000fd5b60200101907effffffffffffffffffffffffffffffffffffffffffffffffffffffffffffff1916908160001a905350600a856116bf9190612977565b9450611617565b8093505050505b919050565b6060600c80546116e190612aa4565b80601f016020809104026020016040519081016040528092919081815260200182805461170d90612aa4565b801561175a5780601f1061172f5761010080835404028352916020019161175a565b820191906000526020600020905b81548152906001019060200180831161173d57829003601f168201915b5050505050905090565b61176d81611a9a565b600060066000838152602001908152602001600020805461178d90612aa4565b9050146117b4576006600082815260200190815260200160002060006117b39190611e95565b5b50565b6000600560008473ffffffffffffffffffffffffffffffffffffffff1673ffffffffffffffffffffffffffffffffffffffff16815260200190815260200160002060008373ffffffffffffffffffffffffffffffffffffffff1673ffffffffffffffffffffffffffffffffffffffff16815260200190815260200160002060009054906101000a900460ff16905092915050565b600081600001549050919050565b611873828260405180602001604052806000815250611bb7565b5050565b6001816000016000828254019250508190555050565b60008073ffffffffffffffffffffffffffffffffffffffff166002600084815260200190815260200160002060009054906101000a900473ffffffffffffffffffffffffffffffffffffffff1673ffffffffffffffffffffffffffffffffffffffff1614159050919050565b505050565b505050565b60006119248473ffffffffffffffffffffffffffffffffffffffff16611c12565b15611a8d578373ffffffffffffffffffffffffffffffffffffffff1663150b7a0261194d610e5b565b8786866040518563ffffffff1660e01b815260040161196f94939291906125f3565b602060405180830381600087803b15801561198957600080fd5b505af19250505080156119ba57506040513d601f19601f820116820180604052508101906119b79190612239565b60015b611a3d573d80600081146119ea576040519150601f19603f3d011682016040523d82523d6000602084013e6119ef565b606091505b50600081511415611a35576040517f08c379a0000000000000000000000000000000000000000000000000000000008152600401611a2c9061267c565b60405180910390fd5b805181602001fd5b63150b7a0260e01b7bffffffffffffffffffffffffffffffffffffffffffffffffffffffff1916817bffffffffffffffffffffffffffffffffffffffffffffffffffffffff191614915050611a92565b600190505b949350505050565b6000611aa58261079e565b9050611ab3816000846118f9565b611abe600083610e63565b6001600360008373ffffffffffffffffffffffffffffffffffffffff1673ffffffffffffffffffffffffffffffffffffffff1681526020019081526020016000206000828254611b0e91906129a8565b925050819055506002600083815260200190815260200160002060006101000a81549073ffffffffffffffffffffffffffffffffffffffff021916905581600073ffffffffffffffffffffffffffffffffffffffff168273ffffffffffffffffffffffffffffffffffffffff167fddf252ad1be2c89b69c2b068fc378daa952ba7f163c4a11628f55a4df523b3ef60405160405180910390a4611bb3816000846118fe565b5050565b611bc18383611c35565b611bce6000848484611903565b611c0d576040517f08c379a0000000000000000000000000000000000000000000000000000000008152600401611c049061267c565b60405180910390fd5b505050565b6000808273ffffffffffffffffffffffffffffffffffffffff163b119050919050565b600073ffffffffffffffffffffffffffffffffffffffff168273ffffffffffffffffffffffffffffffffffffffff161415611ca5576040517f08c379a0000000000000000000000000000000000000000000000000000000008152600401611c9c9061279c565b60405180910390fd5b611cae8161188d565b15611cee576040517f08c379a0000000000000000000000000000000000000000000000000000000008152600401611ce5906126dc565b60405180910390fd5b611cfa600083836118f9565b6001600360008473ffffffffffffffffffffffffffffffffffffffff1673ffffffffffffffffffffffffffffffffffffffff1681526020019081526020016000206000828254611d4a9190612921565b92505081905550816002600083815260200190815260200160002060006101000a81548173ffffffffffffffffffffffffffffffffffffffff021916908373ffffffffffffffffffffffffffffffffffffffff160217905550808273ffffffffffffffffffffffffffffffffffffffff16600073ffffffffffffffffffffffffffffffffffffffff167fddf252ad1be2c89b69c2b068fc378daa952ba7f163c4a11628f55a4df523b3ef60405160405180910390a4611e0b600083836118fe565b5050565b828054611e1b90612aa4565b90600052602060002090601f016020900481019282611e3d5760008555611e84565b82601f10611e5657805160ff1916838001178555611e84565b82800160010185558215611e84579182015b82811115611e83578251825591602001919060010190611e68565b5b509050611e919190611ed5565b5090565b508054611ea190612aa4565b6000825580601f10611eb35750611ed2565b601f016020900490600052602060002090810190611ed19190611ed5565b5b50565b5b80821115611eee576000816000905550600101611ed6565b5090565b6000611f05611f008461287c565b612857565b905082815260208101848484011115611f1d57600080fd5b611f28848285612a62565b509392505050565b6000611f43611f3e846128ad565b612857565b905082815260208101848484011115611f5b57600080fd5b611f66848285612a62565b509392505050565b600081359050611f7d81612fe5565b92915050565b600081359050611f9281612ffc565b92915050565b600081359050611fa781613013565b92915050565b600081359050611fbc8161302a565b92915050565b600081519050611fd18161302a565b92915050565b600082601f830112611fe857600080fd5b8135611ff8848260208601611ef2565b91505092915050565b600082601f83011261201257600080fd5b8135612022848260208601611f30565b91505092915050565b60008135905061203a81613041565b92915050565b60006020828403121561205257600080fd5b600061206084828501611f6e565b91505092915050565b60006020828403121561207b57600080fd5b600061208984828501611f83565b91505092915050565b600080604083850312156120a557600080fd5b60006120b385828601611f6e565b92505060206120c485828601611f6e565b9150509250929050565b6000806000606084860312156120e357600080fd5b60006120f186828701611f6e565b935050602061210286828701611f6e565b92505060406121138682870161202b565b9150509250925092565b6000806000806080858703121561213357600080fd5b600061214187828801611f6e565b945050602061215287828801611f6e565b93505060406121638782880161202b565b925050606085013567ffffffffffffffff81111561218057600080fd5b61218c87828801611fd7565b91505092959194509250565b600080604083850312156121ab57600080fd5b60006121b985828601611f6e565b92505060206121ca85828601611f98565b9150509250929050565b600080604083850312156121e757600080fd5b60006121f585828601611f6e565b92505060206122068582860161202b565b9150509250929050565b60006020828403121561222257600080fd5b600061223084828501611fad565b91505092915050565b60006020828403121561224b57600080fd5b600061225984828501611fc2565b91505092915050565b60006020828403121561227457600080fd5b600082013567ffffffffffffffff81111561228e57600080fd5b61229a84828501612001565b91505092915050565b6000602082840312156122b557600080fd5b60006122c38482850161202b565b91505092915050565b6122d5816129dc565b82525050565b6122e481612a00565b82525050565b60006122f5826128de565b6122ff81856128f4565b935061230f818560208601612a71565b61231881612c3d565b840191505092915050565b600061232e826128e9565b6123388185612905565b9350612348818560208601612a71565b61235181612c3d565b840191505092915050565b6000612367826128e9565b6123718185612916565b9350612381818560208601612a71565b80840191505092915050565b600061239a603283612905565b91506123a582612c4e565b604082019050919050565b60006123bd602683612905565b91506123c882612c9d565b604082019050919050565b60006123e0602583612905565b91506123eb82612cec565b604082019050919050565b6000612403601c83612905565b915061240e82612d3b565b602082019050919050565b6000612426601883612905565b915061243182612d64565b602082019050919050565b6000612449602483612905565b915061245482612d8d565b604082019050919050565b600061246c601983612905565b915061247782612ddc565b602082019050919050565b600061248f602983612905565b915061249a82612e05565b604082019050919050565b60006124b2603e83612905565b91506124bd82612e54565b604082019050919050565b60006124d5602083612905565b91506124e082612ea3565b602082019050919050565b60006124f8600583612916565b915061250382612ecc565b600582019050919050565b600061251b602083612905565b915061252682612ef5565b602082019050919050565b600061253e601883612905565b915061254982612f1e565b602082019050919050565b6000612561602183612905565b915061256c82612f47565b604082019050919050565b6000612584602e83612905565b915061258f82612f96565b604082019050919050565b6125a381612a58565b82525050565b60006125b5828561235c565b91506125c1828461235c565b91506125cc826124eb565b91508190509392505050565b60006020820190506125ed60008301846122cc565b92915050565b600060808201905061260860008301876122cc565b61261560208301866122cc565b612622604083018561259a565b818103606083015261263481846122ea565b905095945050505050565b600060208201905061265460008301846122db565b92915050565b600060208201905081810360008301526126748184612323565b905092915050565b600060208201905081810360008301526126958161238d565b9050919050565b600060208201905081810360008301526126b5816123b0565b9050919050565b600060208201905081810360008301526126d5816123d3565b9050919050565b600060208201905081810360008301526126f5816123f6565b9050919050565b6000602082019050818103600083015261271581612419565b9050919050565b600060208201905081810360008301526127358161243c565b9050919050565b600060208201905081810360008301526127558161245f565b9050919050565b6000602082019050818103600083015261277581612482565b9050919050565b60006020820190508181036000830152612795816124a5565b9050919050565b600060208201905081810360008301526127b5816124c8565b9050919050565b600060208201905081810360008301526127d58161250e565b9050919050565b600060208201905081810360008301526127f581612531565b9050919050565b6000602082019050818103600083015261281581612554565b9050919050565b6000602082019050818103600083015261283581612577565b9050919050565b6000602082019050612851600083018461259a565b92915050565b6000612861612872565b905061286d8282612ad6565b919050565b6000604051905090565b600067ffffffffffffffff82111561289757612896612c0e565b5b6128a082612c3d565b9050602081019050919050565b600067ffffffffffffffff8211156128c8576128c7612c0e565b5b6128d182612c3d565b9050602081019050919050565b600081519050919050565b600081519050919050565b600082825260208201905092915050565b600082825260208201905092915050565b600081905092915050565b600061292c82612a58565b915061293783612a58565b9250827fffffffffffffffffffffffffffffffffffffffffffffffffffffffffffffffff0382111561296c5761296b612b81565b5b828201905092915050565b600061298282612a58565b915061298d83612a58565b92508261299d5761299c612bb0565b5b828204905092915050565b60006129b382612a58565b91506129be83612a58565b9250828210156129d1576129d0612b81565b5b828203905092915050565b60006129e782612a38565b9050919050565b60006129f982612a38565b9050919050565b60008115159050919050565b60007fffffffff0000000000000000000000000000000000000000000000000000000082169050919050565b600073ffffffffffffffffffffffffffffffffffffffff82169050919050565b6000819050919050565b82818337600083830152505050565b60005b83811015612a8f578082015181840152602081019050612a74565b83811115612a9e576000848401525b50505050565b60006002820490506001821680612abc57607f821691505b60208210811415612ad057612acf612bdf565b5b50919050565b612adf82612c3d565b810181811067ffffffffffffffff82111715612afe57612afd612c0e565b5b80604052505050565b6000612b1282612a58565b91507fffffffffffffffffffffffffffffffffffffffffffffffffffffffffffffffff821415612b4557612b44612b81565b5b600182019050919050565b6000612b5b82612a58565b9150612b6683612a58565b925082612b7657612b75612bb0565b5b828206905092915050565b7f4e487b7100000000000000000000000000000000000000000000000000000000600052601160045260246000fd5b7f4e487b7100000000000000000000000000000000000000000000000000000000600052601260045260246000fd5b7f4e487b7100000000000000000000000000000000000000000000000000000000600052602260045260246000fd5b7f4e487b7100000000000000000000000000000000000000000000000000000000600052604160045260246000fd5b6000601f19601f8301169050919050565b7f4552433732313a207472616e7366657220746f206e6f6e20455243373231526560008201527f63656976657220696d706c656d656e7465720000000000000000000000000000602082015250565b7f4f776e61626c653a206e6577206f776e657220697320746865207a65726f206160008201527f6464726573730000000000000000000000000000000000000000000000000000602082015250565b7f4552433732313a207472616e736665722066726f6d20696e636f72726563742060008201527f6f776e6572000000000000000000000000000000000000000000000000000000602082015250565b7f4552433732313a20746f6b656e20616c7265616479206d696e74656400000000600082015250565b7f4f6e6c792031206d696e742069732061646d6974746564210000000000000000600082015250565b7f4552433732313a207472616e7366657220746f20746865207a65726f2061646460008201527f7265737300000000000000000000000000000000000000000000000000000000602082015250565b7f4552433732313a20617070726f766520746f2063616c6c657200000000000000600082015250565b7f4552433732313a2061646472657373207a65726f206973206e6f74206120766160008201527f6c6964206f776e65720000000000000000000000000000000000000000000000602082015250565b7f4552433732313a20617070726f76652063616c6c6572206973206e6f7420746f60008201527f6b656e206f776e6572206e6f7220617070726f76656420666f7220616c6c0000602082015250565b7f4552433732313a206d696e7420746f20746865207a65726f2061646472657373600082015250565b7f2e6a736f6e000000000000000000000000000000000000000000000000000000600082015250565b7f4f776e61626c653a2063616c6c6572206973206e6f7420746865206f776e6572600082015250565b7f4552433732313a20696e76616c696420746f6b656e2049440000000000000000600082015250565b7f4552433732313a20617070726f76616c20746f2063757272656e74206f776e6560008201527f7200000000000000000000000000000000000000000000000000000000000000602082015250565b7f4552433732313a2063616c6c6572206973206e6f7420746f6b656e206f776e6560008201527f72206e6f7220617070726f766564000000000000000000000000000000000000602082015250565b612fee816129dc565b8114612ff957600080fd5b50565b613005816129ee565b811461301057600080fd5b50565b61301c81612a00565b811461302757600080fd5b50565b61303381612a0c565b811461303e57600080fd5b50565b61304a81612a58565b811461305557600080fd5b5056fea2646970667358221220b0c78896d0d8160936e430d8db3cd042a97e61477b98121c754e5c2d789b0d3a64736f6c63430008040033",
  "linkReferences": {},
  "deployedLinkReferences": {}
}