{
  "_format": "hh-sol-artifact-1",
  "contractName": "ICONft",
  "sourceName": "contracts/ICONft.sol",
  "abi": [
    {
      "inputs": [
        {
          "internalType": "uint256",
          "name": "supplyAmount",
          "type": "uint256"
        }
      ],
      "stateMutability": "nonpayable",
      "type": "constructor"
    },
    {
      "anonymous": false,
      "inputs": [
        {
          "indexed": true,
          "internalType": "address",
          "name": "owner",
          "type": "address"
        },
        {
          "indexed": true,
          "internalType": "address",
          "name": "approved",
          "type": "address"
        },
        {
          "indexed": true,
          "internalType": "uint256",
          "name": "tokenId",
          "type": "uint256"
        }
      ],
      "name": "Approval",
      "type": "event"
    },
    {
      "anonymous": false,
      "inputs": [
        {
          "indexed": true,
          "internalType": "address",
          "name": "owner",
          "type": "address"
        },
        {
          "indexed": true,
          "internalType": "address",
          "name": "operator",
          "type": "address"
        },
        {
          "indexed": false,
          "internalType": "bool",
          "name": "approved",
          "type": "bool"
        }
      ],
      "name": "ApprovalForAll",
      "type": "event"
    },
    {
      "anonymous": false,
      "inputs": [
        {
          "indexed": true,
          "internalType": "address",
          "name": "previousOwner",
          "type": "address"
        },
        {
          "indexed": true,
          "internalType": "address",
          "name": "newOwner",
          "type": "address"
        }
      ],
      "name": "OwnershipTransferred",
      "type": "event"
    },
    {
      "anonymous": false,
      "inputs": [
        {
          "indexed": true,
          "internalType": "address",
          "name": "from",
          "type": "address"
        },
        {
          "indexed": true,
          "internalType": "address",
          "name": "to",
          "type": "address"
        },
        {
          "indexed": true,
          "internalType": "uint256",
          "name": "tokenId",
          "type": "uint256"
        }
      ],
      "name": "Transfer",
      "type": "event"
    },
    {
      "inputs": [
        {
          "internalType": "string",
          "name": "_provenanceHash",
          "type": "string"
        }
      ],
      "name": "ProvenanceHash",
      "outputs": [],
      "stateMutability": "nonpayable",
      "type": "function"
    },
    {
      "inputs": [
        {
          "internalType": "address",
          "name": "to",
          "type": "address"
        },
        {
          "internalType": "uint256",
          "name": "tokenId",
          "type": "uint256"
        }
      ],
      "name": "approve",
      "outputs": [],
      "stateMutability": "nonpayable",
      "type": "function"
    },
    {
      "inputs": [
        {
          "internalType": "address",
          "name": "owner",
          "type": "address"
        }
      ],
      "name": "balanceOf",
      "outputs": [
        {
          "internalType": "uint256",
          "name": "",
          "type": "uint256"
        }
      ],
      "stateMutability": "view",
      "type": "function"
    },
    {
      "inputs": [
        {
          "internalType": "uint256",
          "name": "tokenId",
          "type": "uint256"
        }
      ],
      "name": "getApproved",
      "outputs": [
        {
          "internalType": "address",
          "name": "",
          "type": "address"
        }
      ],
      "stateMutability": "view",
      "type": "function"
    },
    {
      "inputs": [
        {
          "internalType": "address payable",
          "name": "icoExchangeAddress",
          "type": "address"
        }
      ],
      "name": "initIcoExchange",
      "outputs": [],
      "stateMutability": "nonpayable",
      "type": "function"
    },
    {
      "inputs": [
        {
          "internalType": "address",
          "name": "icoTokenAddress",
          "type": "address"
        }
      ],
      "name": "initIcoToken",
      "outputs": [],
      "stateMutability": "nonpayable",
      "type": "function"
    },
    {
      "inputs": [
        {
          "internalType": "address",
          "name": "owner",
          "type": "address"
        },
        {
          "internalType": "address",
          "name": "operator",
          "type": "address"
        }
      ],
      "name": "isApprovedForAll",
      "outputs": [
        {
          "internalType": "bool",
          "name": "",
          "type": "bool"
        }
      ],
      "stateMutability": "view",
      "type": "function"
    },
    {
      "inputs": [
        {
          "internalType": "address",
          "name": "tokenOwner",
          "type": "address"
        }
      ],
      "name": "mintNft",
      "outputs": [],
      "stateMutability": "nonpayable",
      "type": "function"
    },
    {
      "inputs": [],
      "name": "name",
      "outputs": [
        {
          "internalType": "string",
          "name": "",
          "type": "string"
        }
      ],
      "stateMutability": "view",
      "type": "function"
    },
    {
      "inputs": [],
      "name": "owner",
      "outputs": [
        {
          "internalType": "address",
          "name": "",
          "type": "address"
        }
      ],
      "stateMutability": "view",
      "type": "function"
    },
    {
      "inputs": [
        {
          "internalType": "uint256",
          "name": "tokenId",
          "type": "uint256"
        }
      ],
      "name": "ownerOf",
      "outputs": [
        {
          "internalType": "address",
          "name": "",
          "type": "address"
        }
      ],
      "stateMutability": "view",
      "type": "function"
    },
    {
      "inputs": [],
      "name": "renounceOwnership",
      "outputs": [],
      "stateMutability": "nonpayable",
      "type": "function"
    },
    {
      "inputs": [
        {
          "internalType": "address",
          "name": "from",
          "type": "address"
        },
        {
          "internalType": "address",
          "name": "to",
          "type": "address"
        },
        {
          "internalType": "uint256",
          "name": "tokenId",
          "type": "uint256"
        }
      ],
      "name": "safeTransferFrom",
      "outputs": [],
      "stateMutability": "nonpayable",
      "type": "function"
    },
    {
      "inputs": [
        {
          "internalType": "address",
          "name": "from",
          "type": "address"
        },
        {
          "internalType": "address",
          "name": "to",
          "type": "address"
        },
        {
          "internalType": "uint256",
          "name": "tokenId",
          "type": "uint256"
        },
        {
          "internalType": "bytes",
          "name": "data",
          "type": "bytes"
        }
      ],
      "name": "safeTransferFrom",
      "outputs": [],
      "stateMutability": "nonpayable",
      "type": "function"
    },
    {
      "inputs": [
        {
          "internalType": "address",
          "name": "operator",
          "type": "address"
        },
        {
          "internalType": "bool",
          "name": "approved",
          "type": "bool"
        }
      ],
      "name": "setApprovalForAll",
      "outputs": [],
      "stateMutability": "nonpayable",
      "type": "function"
    },
    {
      "inputs": [
        {
          "internalType": "bytes4",
          "name": "interfaceId",
          "type": "bytes4"
        }
      ],
      "name": "supportsInterface",
      "outputs": [
        {
          "internalType": "bool",
          "name": "",
          "type": "bool"
        }
      ],
      "stateMutability": "view",
      "type": "function"
    },
    {
      "inputs": [],
      "name": "symbol",
      "outputs": [
        {
          "internalType": "string",
          "name": "",
          "type": "string"
        }
      ],
      "stateMutability": "view",
      "type": "function"
    },
    {
      "inputs": [
        {
          "internalType": "uint256",
          "name": "_tokenId",
          "type": "uint256"
        }
      ],
      "name": "tokenURI",
      "outputs": [
        {
          "internalType": "string",
          "name": "",
          "type": "string"
        }
      ],
      "stateMutability": "view",
      "type": "function"
    },
    {
      "inputs": [
        {
          "internalType": "address",
          "name": "from",
          "type": "address"
        },
        {
          "internalType": "address",
          "name": "to",
          "type": "address"
        },
        {
          "internalType": "uint256",
          "name": "tokenId",
          "type": "uint256"
        }
      ],
      "name": "transferFrom",
      "outputs": [],
      "stateMutability": "nonpayable",
      "type": "function"
    },
    {
      "inputs": [
        {
          "internalType": "address",
          "name": "newOwner",
          "type": "address"
        }
      ],
      "name": "transferOwnership",
      "outputs": [],
      "stateMutability": "nonpayable",
      "type": "function"
    }
  ],
  "bytecode": "0x60806040523480156200001157600080fd5b50604051620031873803806200318783398181016040528101906200003791906200029a565b6040518060400160405280600781526020017f49434f204e4654000000000000000000000000000000000000000000000000008152506040518060400160405280600481526020017f49434f4e000000000000000000000000000000000000000000000000000000008152508160009080519060200190620000bb929190620001d3565b508060019080519060200190620000d4929190620001d3565b505050620000f7620000eb6200010560201b60201c565b6200010d60201b60201c565b80600b81905550506200034f565b600033905090565b6000600760009054906101000a900473ffffffffffffffffffffffffffffffffffffffff16905081600760006101000a81548173ffffffffffffffffffffffffffffffffffffffff021916908373ffffffffffffffffffffffffffffffffffffffff1602179055508173ffffffffffffffffffffffffffffffffffffffff168173ffffffffffffffffffffffffffffffffffffffff167f8be0079c531659141344cd1fd0a4f28419497f9722a3daafe3b4186f6b6457e060405160405180910390a35050565b828054620001e190620002d0565b90600052602060002090601f01602090048101928262000205576000855562000251565b82601f106200022057805160ff191683800117855562000251565b8280016001018555821562000251579182015b828111156200025057825182559160200191906001019062000233565b5b50905062000260919062000264565b5090565b5b808211156200027f57600081600090555060010162000265565b5090565b600081519050620002948162000335565b92915050565b600060208284031215620002ad57600080fd5b6000620002bd8482850162000283565b91505092915050565b6000819050919050565b60006002820490506001821680620002e957607f821691505b602082108114156200030057620002ff62000306565b5b50919050565b7f4e487b7100000000000000000000000000000000000000000000000000000000600052602260045260246000fd5b6200034081620002c6565b81146200034c57600080fd5b50565b612e28806200035f6000396000f3fe608060405234801561001057600080fd5b506004361061012c5760003560e01c80638da5cb5b116100ad578063c87b56dd11610071578063c87b56dd14610319578063d5726dfc14610349578063e985e9c514610365578063e9c2e14b14610395578063f2fde38b146103b15761012c565b80638da5cb5b1461028957806395d89b41146102a75780639a0d2397146102c5578063a22cb465146102e1578063b88d4fde146102fd5761012c565b806342842e0e116100f457806342842e0e146101e75780636352211e14610203578063644f09371461023357806370a082311461024f578063715018a61461027f5761012c565b806301ffc9a71461013157806306fdde0314610161578063081812fc1461017f578063095ea7b3146101af57806323b872dd146101cb575b600080fd5b61014b60048036038101906101469190611f3e565b6103cd565b6040516101589190612390565b60405180910390f35b6101696104af565b60405161017691906123ab565b60405180910390f35b61019960048036038101906101949190611fd1565b610541565b6040516101a69190612329565b60405180910390f35b6101c960048036038101906101c49190611f02565b610587565b005b6101e560048036038101906101e09190611dfc565b61069f565b005b61020160048036038101906101fc9190611dfc565b6106ff565b005b61021d60048036038101906102189190611fd1565b61071f565b60405161022a9190612329565b60405180910390f35b61024d60048036038101906102489190611d6e565b6107d1565b005b61026960048036038101906102649190611d6e565b61081d565b60405161027691906125ad565b60405180910390f35b6102876108d5565b005b6102916108e9565b60405161029e9190612329565b60405180910390f35b6102af610913565b6040516102bc91906123ab565b60405180910390f35b6102df60048036038101906102da9190611f90565b6109a5565b005b6102fb60048036038101906102f69190611ec6565b6109c7565b005b61031760048036038101906103129190611e4b565b6109dd565b005b610333600480360381019061032e9190611fd1565b610a3f565b60405161034091906123ab565b60405180910390f35b610363600480360381019061035e9190611d97565b610a85565b005b61037f600480360381019061037a9190611dc0565b610ad1565b60405161038c9190612390565b60405180910390f35b6103af60048036038101906103aa9190611d6e565b610b3d565b005b6103cb60048036038101906103c69190611d6e565b610c00565b005b60007f80ac58cd000000000000000000000000000000000000000000000000000000007bffffffffffffffffffffffffffffffffffffffffffffffffffffffff1916827bffffffffffffffffffffffffffffffffffffffffffffffffffffffff1916148061049857507f5b5e139f000000000000000000000000000000000000000000000000000000007bffffffffffffffffffffffffffffffffffffffffffffffffffffffff1916827bffffffffffffffffffffffffffffffffffffffffffffffffffffffff1916145b806104a857506104a782610c84565b5b9050919050565b6060600080546104be90612815565b80601f01602080910402602001604051908101604052809291908181526020018280546104ea90612815565b80156105375780601f1061050c57610100808354040283529160200191610537565b820191906000526020600020905b81548152906001019060200180831161051a57829003601f168201915b5050505050905090565b600061054c82610cee565b6004600083815260200190815260200160002060009054906101000a900473ffffffffffffffffffffffffffffffffffffffff169050919050565b60006105928261071f565b90508073ffffffffffffffffffffffffffffffffffffffff168373ffffffffffffffffffffffffffffffffffffffff161415610603576040517f08c379a00000000000000000000000000000000000000000000000000000000081526004016105fa9061254d565b60405180910390fd5b8073ffffffffffffffffffffffffffffffffffffffff16610622610d39565b73ffffffffffffffffffffffffffffffffffffffff16148061065157506106508161064b610d39565b610ad1565b5b610690576040517f08c379a0000000000000000000000000000000000000000000000000000000008152600401610687906124cd565b60405180910390fd5b61069a8383610d41565b505050565b6106b06106aa610d39565b82610dfa565b6106ef576040517f08c379a00000000000000000000000000000000000000000000000000000000081526004016106e69061258d565b60405180910390fd5b6106fa838383610e8f565b505050565b61071a838383604051806020016040528060008152506109dd565b505050565b6000806002600084815260200190815260200160002060009054906101000a900473ffffffffffffffffffffffffffffffffffffffff169050600073ffffffffffffffffffffffffffffffffffffffff168173ffffffffffffffffffffffffffffffffffffffff1614156107c8576040517f08c379a00000000000000000000000000000000000000000000000000000000081526004016107bf9061252d565b60405180910390fd5b80915050919050565b6107d96110f6565b80600960006101000a81548173ffffffffffffffffffffffffffffffffffffffff021916908373ffffffffffffffffffffffffffffffffffffffff16021790555050565b60008073ffffffffffffffffffffffffffffffffffffffff168273ffffffffffffffffffffffffffffffffffffffff16141561088e576040517f08c379a0000000000000000000000000000000000000000000000000000000008152600401610885906124ad565b60405180910390fd5b600360008373ffffffffffffffffffffffffffffffffffffffff1673ffffffffffffffffffffffffffffffffffffffff168152602001908152602001600020549050919050565b6108dd6110f6565b6108e76000611174565b565b6000600760009054906101000a900473ffffffffffffffffffffffffffffffffffffffff16905090565b60606001805461092290612815565b80601f016020809104026020016040519081016040528092919081815260200182805461094e90612815565b801561099b5780601f106109705761010080835404028352916020019161099b565b820191906000526020600020905b81548152906001019060200180831161097e57829003601f168201915b5050505050905090565b6109ad6110f6565b80600c90805190602001906109c3929190611b7d565b5050565b6109d96109d2610d39565b838361123a565b5050565b6109ee6109e8610d39565b83610dfa565b610a2d576040517f08c379a0000000000000000000000000000000000000000000000000000000008152600401610a249061258d565b60405180910390fd5b610a39848484846113a7565b50505050565b60606000610a4c83611403565b90506000610a586115b0565b82604051602001610a6a9291906122fa565b60405160208183030381529060405290508092505050919050565b610a8d6110f6565b80600a60006101000a81548173ffffffffffffffffffffffffffffffffffffffff021916908373ffffffffffffffffffffffffffffffffffffffff16021790555050565b6000610add8383611642565b80610b355750600a60009054906101000a900473ffffffffffffffffffffffffffffffffffffffff1673ffffffffffffffffffffffffffffffffffffffff168273ffffffffffffffffffffffffffffffffffffffff16145b905092915050565b600a60009054906101000a9050506000610b563361081d565b14610b96576040517f08c379a0000000000000000000000000000000000000000000000000000000008152600401610b8d9061244d565b60405180910390fd5b6000610ba260086116d6565b9050600b548110610be8576040517f08c379a0000000000000000000000000000000000000000000000000000000008152600401610bdf9061256d565b60405180910390fd5b610bf282826116e4565b610bfc6008611702565b5050565b610c086110f6565b600073ffffffffffffffffffffffffffffffffffffffff168173ffffffffffffffffffffffffffffffffffffffff161415610c78576040517f08c379a0000000000000000000000000000000000000000000000000000000008152600401610c6f906123ed565b60405180910390fd5b610c8181611174565b50565b60007f01ffc9a7000000000000000000000000000000000000000000000000000000007bffffffffffffffffffffffffffffffffffffffffffffffffffffffff1916827bffffffffffffffffffffffffffffffffffffffffffffffffffffffff1916149050919050565b610cf781611718565b610d36576040517f08c379a0000000000000000000000000000000000000000000000000000000008152600401610d2d9061252d565b60405180910390fd5b50565b600033905090565b816004600083815260200190815260200160002060006101000a81548173ffffffffffffffffffffffffffffffffffffffff021916908373ffffffffffffffffffffffffffffffffffffffff160217905550808273ffffffffffffffffffffffffffffffffffffffff16610db48361071f565b73ffffffffffffffffffffffffffffffffffffffff167f8c5be1e5ebec7d5bd14f71427d1e84f3dd0314c0f7b2291e5b200ac8c7c3b92560405160405180910390a45050565b600080610e068361071f565b90508073ffffffffffffffffffffffffffffffffffffffff168473ffffffffffffffffffffffffffffffffffffffff161480610e485750610e478185610ad1565b5b80610e8657508373ffffffffffffffffffffffffffffffffffffffff16610e6e84610541565b73ffffffffffffffffffffffffffffffffffffffff16145b91505092915050565b8273ffffffffffffffffffffffffffffffffffffffff16610eaf8261071f565b73ffffffffffffffffffffffffffffffffffffffff1614610f05576040517f08c379a0000000000000000000000000000000000000000000000000000000008152600401610efc9061240d565b60405180910390fd5b600073ffffffffffffffffffffffffffffffffffffffff168273ffffffffffffffffffffffffffffffffffffffff161415610f75576040517f08c379a0000000000000000000000000000000000000000000000000000000008152600401610f6c9061246d565b60405180910390fd5b610f80838383611784565b610f8b600082610d41565b6001600360008573ffffffffffffffffffffffffffffffffffffffff1673ffffffffffffffffffffffffffffffffffffffff1681526020019081526020016000206000828254610fdb9190612719565b925050819055506001600360008473ffffffffffffffffffffffffffffffffffffffff1673ffffffffffffffffffffffffffffffffffffffff16815260200190815260200160002060008282546110329190612692565b92505081905550816002600083815260200190815260200160002060006101000a81548173ffffffffffffffffffffffffffffffffffffffff021916908373ffffffffffffffffffffffffffffffffffffffff160217905550808273ffffffffffffffffffffffffffffffffffffffff168473ffffffffffffffffffffffffffffffffffffffff167fddf252ad1be2c89b69c2b068fc378daa952ba7f163c4a11628f55a4df523b3ef60405160405180910390a46110f1838383611789565b505050565b6110fe610d39565b73ffffffffffffffffffffffffffffffffffffffff1661111c6108e9565b73ffffffffffffffffffffffffffffffffffffffff1614611172576040517f08c379a00000000000000000000000000000000000000000000000000000000081526004016111699061250d565b60405180910390fd5b565b6000600760009054906101000a900473ffffffffffffffffffffffffffffffffffffffff16905081600760006101000a81548173ffffffffffffffffffffffffffffffffffffffff021916908373ffffffffffffffffffffffffffffffffffffffff1602179055508173ffffffffffffffffffffffffffffffffffffffff168173ffffffffffffffffffffffffffffffffffffffff167f8be0079c531659141344cd1fd0a4f28419497f9722a3daafe3b4186f6b6457e060405160405180910390a35050565b8173ffffffffffffffffffffffffffffffffffffffff168373ffffffffffffffffffffffffffffffffffffffff1614156112a9576040517f08c379a00000000000000000000000000000000000000000000000000000000081526004016112a09061248d565b60405180910390fd5b80600560008573ffffffffffffffffffffffffffffffffffffffff1673ffffffffffffffffffffffffffffffffffffffff16815260200190815260200160002060008473ffffffffffffffffffffffffffffffffffffffff1673ffffffffffffffffffffffffffffffffffffffff16815260200190815260200160002060006101000a81548160ff0219169083151502179055508173ffffffffffffffffffffffffffffffffffffffff168373ffffffffffffffffffffffffffffffffffffffff167f17307eab39ab6107e8899845ad3d59bd9653f200f220920489ca2b5937696c318360405161139a9190612390565b60405180910390a3505050565b6113b2848484610e8f565b6113be8484848461178e565b6113fd576040517f08c379a00000000000000000000000000000000000000000000000000000000081526004016113f4906123cd565b60405180910390fd5b50505050565b6060600082141561144b576040518060400160405280600181526020017f300000000000000000000000000000000000000000000000000000000000000081525090506115ab565b600082905060005b6000821461147d57808061146690612878565b915050600a8261147691906126e8565b9150611453565b60008167ffffffffffffffff8111156114bf577f4e487b7100000000000000000000000000000000000000000000000000000000600052604160045260246000fd5b6040519080825280601f01601f1916602001820160405280156114f15781602001600182028036833780820191505090505b5090505b600085146115a45760018261150a9190612719565b9150600a8561151991906128c1565b60306115259190612692565b60f81b818381518110611561577f4e487b7100000000000000000000000000000000000000000000000000000000600052603260045260246000fd5b60200101907effffffffffffffffffffffffffffffffffffffffffffffffffffffffffffff1916908160001a905350600a8561159d91906126e8565b94506114f5565b8093505050505b919050565b6060600c80546115bf90612815565b80601f01602080910402602001604051908101604052809291908181526020018280546115eb90612815565b80156116385780601f1061160d57610100808354040283529160200191611638565b820191906000526020600020905b81548152906001019060200180831161161b57829003601f168201915b5050505050905090565b6000600560008473ffffffffffffffffffffffffffffffffffffffff1673ffffffffffffffffffffffffffffffffffffffff16815260200190815260200160002060008373ffffffffffffffffffffffffffffffffffffffff1673ffffffffffffffffffffffffffffffffffffffff16815260200190815260200160002060009054906101000a900460ff16905092915050565b600081600001549050919050565b6116fe828260405180602001604052806000815250611925565b5050565b6001816000016000828254019250508190555050565b60008073ffffffffffffffffffffffffffffffffffffffff166002600084815260200190815260200160002060009054906101000a900473ffffffffffffffffffffffffffffffffffffffff1673ffffffffffffffffffffffffffffffffffffffff1614159050919050565b505050565b505050565b60006117af8473ffffffffffffffffffffffffffffffffffffffff16611980565b15611918578373ffffffffffffffffffffffffffffffffffffffff1663150b7a026117d8610d39565b8786866040518563ffffffff1660e01b81526004016117fa9493929190612344565b602060405180830381600087803b15801561181457600080fd5b505af192505050801561184557506040513d601f19601f820116820180604052508101906118429190611f67565b60015b6118c8573d8060008114611875576040519150601f19603f3d011682016040523d82523d6000602084013e61187a565b606091505b506000815114156118c0576040517f08c379a00000000000000000000000000000000000000000000000000000000081526004016118b7906123cd565b60405180910390fd5b805181602001fd5b63150b7a0260e01b7bffffffffffffffffffffffffffffffffffffffffffffffffffffffff1916817bffffffffffffffffffffffffffffffffffffffffffffffffffffffff19161491505061191d565b600190505b949350505050565b61192f83836119a3565b61193c600084848461178e565b61197b576040517f08c379a0000000000000000000000000000000000000000000000000000000008152600401611972906123cd565b60405180910390fd5b505050565b6000808273ffffffffffffffffffffffffffffffffffffffff163b119050919050565b600073ffffffffffffffffffffffffffffffffffffffff168273ffffffffffffffffffffffffffffffffffffffff161415611a13576040517f08c379a0000000000000000000000000000000000000000000000000000000008152600401611a0a906124ed565b60405180910390fd5b611a1c81611718565b15611a5c576040517f08c379a0000000000000000000000000000000000000000000000000000000008152600401611a539061242d565b60405180910390fd5b611a6860008383611784565b6001600360008473ffffffffffffffffffffffffffffffffffffffff1673ffffffffffffffffffffffffffffffffffffffff1681526020019081526020016000206000828254611ab89190612692565b92505081905550816002600083815260200190815260200160002060006101000a81548173ffffffffffffffffffffffffffffffffffffffff021916908373ffffffffffffffffffffffffffffffffffffffff160217905550808273ffffffffffffffffffffffffffffffffffffffff16600073ffffffffffffffffffffffffffffffffffffffff167fddf252ad1be2c89b69c2b068fc378daa952ba7f163c4a11628f55a4df523b3ef60405160405180910390a4611b7960008383611789565b5050565b828054611b8990612815565b90600052602060002090601f016020900481019282611bab5760008555611bf2565b82601f10611bc457805160ff1916838001178555611bf2565b82800160010185558215611bf2579182015b82811115611bf1578251825591602001919060010190611bd6565b5b509050611bff9190611c03565b5090565b5b80821115611c1c576000816000905550600101611c04565b5090565b6000611c33611c2e846125ed565b6125c8565b905082815260208101848484011115611c4b57600080fd5b611c568482856127d3565b509392505050565b6000611c71611c6c8461261e565b6125c8565b905082815260208101848484011115611c8957600080fd5b611c948482856127d3565b509392505050565b600081359050611cab81612d7f565b92915050565b600081359050611cc081612d96565b92915050565b600081359050611cd581612dad565b92915050565b600081359050611cea81612dc4565b92915050565b600081519050611cff81612dc4565b92915050565b600082601f830112611d1657600080fd5b8135611d26848260208601611c20565b91505092915050565b600082601f830112611d4057600080fd5b8135611d50848260208601611c5e565b91505092915050565b600081359050611d6881612ddb565b92915050565b600060208284031215611d8057600080fd5b6000611d8e84828501611c9c565b91505092915050565b600060208284031215611da957600080fd5b6000611db784828501611cb1565b91505092915050565b60008060408385031215611dd357600080fd5b6000611de185828601611c9c565b9250506020611df285828601611c9c565b9150509250929050565b600080600060608486031215611e1157600080fd5b6000611e1f86828701611c9c565b9350506020611e3086828701611c9c565b9250506040611e4186828701611d59565b9150509250925092565b60008060008060808587031215611e6157600080fd5b6000611e6f87828801611c9c565b9450506020611e8087828801611c9c565b9350506040611e9187828801611d59565b925050606085013567ffffffffffffffff811115611eae57600080fd5b611eba87828801611d05565b91505092959194509250565b60008060408385031215611ed957600080fd5b6000611ee785828601611c9c565b9250506020611ef885828601611cc6565b9150509250929050565b60008060408385031215611f1557600080fd5b6000611f2385828601611c9c565b9250506020611f3485828601611d59565b9150509250929050565b600060208284031215611f5057600080fd5b6000611f5e84828501611cdb565b91505092915050565b600060208284031215611f7957600080fd5b6000611f8784828501611cf0565b91505092915050565b600060208284031215611fa257600080fd5b600082013567ffffffffffffffff811115611fbc57600080fd5b611fc884828501611d2f565b91505092915050565b600060208284031215611fe357600080fd5b6000611ff184828501611d59565b91505092915050565b6120038161274d565b82525050565b61201281612771565b82525050565b60006120238261264f565b61202d8185612665565b935061203d8185602086016127e2565b612046816129ae565b840191505092915050565b600061205c8261265a565b6120668185612676565b93506120768185602086016127e2565b61207f816129ae565b840191505092915050565b60006120958261265a565b61209f8185612687565b93506120af8185602086016127e2565b80840191505092915050565b60006120c8603283612676565b91506120d3826129bf565b604082019050919050565b60006120eb602683612676565b91506120f682612a0e565b604082019050919050565b600061210e602583612676565b915061211982612a5d565b604082019050919050565b6000612131601c83612676565b915061213c82612aac565b602082019050919050565b6000612154601883612676565b915061215f82612ad5565b602082019050919050565b6000612177602483612676565b915061218282612afe565b604082019050919050565b600061219a601983612676565b91506121a582612b4d565b602082019050919050565b60006121bd602983612676565b91506121c882612b76565b604082019050919050565b60006121e0603e83612676565b91506121eb82612bc5565b604082019050919050565b6000612203602083612676565b915061220e82612c14565b602082019050919050565b6000612226600583612687565b915061223182612c3d565b600582019050919050565b6000612249602083612676565b915061225482612c66565b602082019050919050565b600061226c601883612676565b915061227782612c8f565b602082019050919050565b600061228f602183612676565b915061229a82612cb8565b604082019050919050565b60006122b2601383612676565b91506122bd82612d07565b602082019050919050565b60006122d5602e83612676565b91506122e082612d30565b604082019050919050565b6122f4816127c9565b82525050565b6000612306828561208a565b9150612312828461208a565b915061231d82612219565b91508190509392505050565b600060208201905061233e6000830184611ffa565b92915050565b60006080820190506123596000830187611ffa565b6123666020830186611ffa565b61237360408301856122eb565b81810360608301526123858184612018565b905095945050505050565b60006020820190506123a56000830184612009565b92915050565b600060208201905081810360008301526123c58184612051565b905092915050565b600060208201905081810360008301526123e6816120bb565b9050919050565b60006020820190508181036000830152612406816120de565b9050919050565b6000602082019050818103600083015261242681612101565b9050919050565b6000602082019050818103600083015261244681612124565b9050919050565b6000602082019050818103600083015261246681612147565b9050919050565b600060208201905081810360008301526124868161216a565b9050919050565b600060208201905081810360008301526124a68161218d565b9050919050565b600060208201905081810360008301526124c6816121b0565b9050919050565b600060208201905081810360008301526124e6816121d3565b9050919050565b60006020820190508181036000830152612506816121f6565b9050919050565b600060208201905081810360008301526125268161223c565b9050919050565b600060208201905081810360008301526125468161225f565b9050919050565b6000602082019050818103600083015261256681612282565b9050919050565b60006020820190508181036000830152612586816122a5565b9050919050565b600060208201905081810360008301526125a6816122c8565b9050919050565b60006020820190506125c260008301846122eb565b92915050565b60006125d26125e3565b90506125de8282612847565b919050565b6000604051905090565b600067ffffffffffffffff8211156126085761260761297f565b5b612611826129ae565b9050602081019050919050565b600067ffffffffffffffff8211156126395761263861297f565b5b612642826129ae565b9050602081019050919050565b600081519050919050565b600081519050919050565b600082825260208201905092915050565b600082825260208201905092915050565b600081905092915050565b600061269d826127c9565b91506126a8836127c9565b9250827fffffffffffffffffffffffffffffffffffffffffffffffffffffffffffffffff038211156126dd576126dc6128f2565b5b828201905092915050565b60006126f3826127c9565b91506126fe836127c9565b92508261270e5761270d612921565b5b828204905092915050565b6000612724826127c9565b915061272f836127c9565b925082821015612742576127416128f2565b5b828203905092915050565b6000612758826127a9565b9050919050565b600061276a826127a9565b9050919050565b60008115159050919050565b60007fffffffff0000000000000000000000000000000000000000000000000000000082169050919050565b600073ffffffffffffffffffffffffffffffffffffffff82169050919050565b6000819050919050565b82818337600083830152505050565b60005b838110156128005780820151818401526020810190506127e5565b8381111561280f576000848401525b50505050565b6000600282049050600182168061282d57607f821691505b6020821081141561284157612840612950565b5b50919050565b612850826129ae565b810181811067ffffffffffffffff8211171561286f5761286e61297f565b5b80604052505050565b6000612883826127c9565b91507fffffffffffffffffffffffffffffffffffffffffffffffffffffffffffffffff8214156128b6576128b56128f2565b5b600182019050919050565b60006128cc826127c9565b91506128d7836127c9565b9250826128e7576128e6612921565b5b828206905092915050565b7f4e487b7100000000000000000000000000000000000000000000000000000000600052601160045260246000fd5b7f4e487b7100000000000000000000000000000000000000000000000000000000600052601260045260246000fd5b7f4e487b7100000000000000000000000000000000000000000000000000000000600052602260045260246000fd5b7f4e487b7100000000000000000000000000000000000000000000000000000000600052604160045260246000fd5b6000601f19601f8301169050919050565b7f4552433732313a207472616e7366657220746f206e6f6e20455243373231526560008201527f63656976657220696d706c656d656e7465720000000000000000000000000000602082015250565b7f4f776e61626c653a206e6577206f776e657220697320746865207a65726f206160008201527f6464726573730000000000000000000000000000000000000000000000000000602082015250565b7f4552433732313a207472616e736665722066726f6d20696e636f72726563742060008201527f6f776e6572000000000000000000000000000000000000000000000000000000602082015250565b7f4552433732313a20746f6b656e20616c7265616479206d696e74656400000000600082015250565b7f4f6e6c792031206d696e742069732061646d6974746564210000000000000000600082015250565b7f4552433732313a207472616e7366657220746f20746865207a65726f2061646460008201527f7265737300000000000000000000000000000000000000000000000000000000602082015250565b7f4552433732313a20617070726f766520746f2063616c6c657200000000000000600082015250565b7f4552433732313a2061646472657373207a65726f206973206e6f74206120766160008201527f6c6964206f776e65720000000000000000000000000000000000000000000000602082015250565b7f4552433732313a20617070726f76652063616c6c6572206973206e6f7420746f60008201527f6b656e206f776e6572206e6f7220617070726f76656420666f7220616c6c0000602082015250565b7f4552433732313a206d696e7420746f20746865207a65726f2061646472657373600082015250565b7f2e6a736f6e000000000000000000000000000000000000000000000000000000600082015250565b7f4f776e61626c653a2063616c6c6572206973206e6f7420746865206f776e6572600082015250565b7f4552433732313a20696e76616c696420746f6b656e2049440000000000000000600082015250565b7f4552433732313a20617070726f76616c20746f2063757272656e74206f776e6560008201527f7200000000000000000000000000000000000000000000000000000000000000602082015250565b7f4d617820537570706c7920526561636865642100000000000000000000000000600082015250565b7f4552433732313a2063616c6c6572206973206e6f7420746f6b656e206f776e6560008201527f72206e6f7220617070726f766564000000000000000000000000000000000000602082015250565b612d888161274d565b8114612d9357600080fd5b50565b612d9f8161275f565b8114612daa57600080fd5b50565b612db681612771565b8114612dc157600080fd5b50565b612dcd8161277d565b8114612dd857600080fd5b50565b612de4816127c9565b8114612def57600080fd5b5056fea2646970667358221220e5468e14ba6257dcfb8fcf06c3b006d95f4742093a6126385db45734232bc72d64736f6c63430008040033",
  "linkReferences": {},
  "deployedLinkReferences": {}
}